:100000000C9421120C9452120C9452120C94521211
:100010000C9452120C9452120C9452120C945212D0
:100020000C9452120C9452120C9452120C945212C0
:100030000C9452120C9452120C9452120C945212B0
:100040000C9452120C942E3F0C9452120C94521297
:100050000C9452120C9452120C9479320C9490A27B
:100060000C9452120C9446950C9452120C94521209
:100070000C9452120C9452120C9452120C94521270
:100080000C946E400C9452120C9452120C94521216
:100090000C9452120C9452120C9452120C94521250
:1000A0000C9452120C9452120C9440400C94521224
:1000B0000C9452120C9452120C9452120C94124042
:1000C0000C9452120C9452120C9452120C94521220
:1000D0000C9452120C9452120C9452120C94521210
:1000E0000C945212084AD73B3BCE016E84BCBFFD34
:1000F000C12F3D6C74319ABD56833DDA3D00C77FF8
:1001000011BED9E4BB4C3E916BAAAABE0000008090
:100110003F05A84CCDB2D44EB93836A9020C50B91F
:10012000918688083CA6AAAA2ABE000000803F004B
:100130004E414E494E495459494E46CDCCCC3D0ACC
:10014000D7233C17B7D13877CC2B329595E6241FAF
:10015000B14F0A000020410000C84200401C462068
:10016000BCBE4CCA1B0E5AAEC59D74656E717565DA
:100170007565696E672022004B494C4C45442E2022
:100180000053544F505045442E20005072696E74F5
:1001900065722073746F7070656420647565207477
:1001A0006F206572726F72732E20466978207468B2
:1001B00065206572726F7220616E642075736520B0
:1001C0004D39393920746F20726573746172742EE1
:1001D000202854656D70657261747572652069734D
:1001E0002072657365742E205365742069742061D4
:1001F000667465722072657374617274696E6729C2
:100200000A004E6F20436865636B73756D207769D4
:100210007468206C696E65206E756D6265722C2045
:100220004C617374204C696E653A200063686563A5
:100230006B73756D206D69736D617463682C204CF0
:10024000617374204C696E653A20004C696E6520BC
:100250004E756D626572206973206E6F74204C61FB
:100260007374204C696E65204E756D6265722B311A
:100270002C204C617374204C696E653A20004D311E
:1002800031300020496E76616C6964206578747243
:10029000756465722000000040C1000050C100007C
:1002A0000000000048430000484300004843426902
:1002B0006C696E656172204C6576656C696E67204D
:1002C000477269643A0A00486F6D696E672066611B
:1002D000696C656400202844525952554E290047E4
:1002E0003239204175746F20426564204C65766513
:1002F0006C696E67003F20284C2C522C462C4229FA
:10030000206F7574206F6620626F756E64732E0A9D
:10031000003F2856296572626F7365206C657665AB
:100320006C20697320696D706C61757369626C65AE
:100330002028302D34292E0A00426164205A20766C
:10034000616C75650A004E6F2062696C696E65614B
:100350007220677269640A0050726F746563746515
:10036000642050696E0A0020573A004520436F6FA1
:100370006C696E672E2E2E00452048656174696E8B
:10038000672E2E2E0020573A0042656420636F6F5F
:100390006C696E672E2E2E0042656420686561745C
:1003A000696E672E2E2E00205A3A0020593A0020FE
:1003B000436F756E7420583A0020453A00205A3A2F
:1003C0000020593A00583A003A004361703A002040
:1003D0005A00205900580020204D61783A20002012
:1003E0005A00205900580020204D696E3A20004FD5
:1003F0006E20004F666600536F667420656E6473EE
:10040000746F70733A2000496E76616C6964206580
:10041000787472756465720A0020643A0020693A43
:100420000020703A004F66660A0046616465204805
:1004300065696768742000426564204C6576656C68
:10044000696E6720004661696C656420746F206581
:100450006E61626C6520426564204C6576656C69EE
:100460006E670A004F666673657473206170706C06
:10047000696564004572723A20546F6F206661723C
:100480002100546F6F206661722066726F6D20725A
:1004900065666572656E636520706F696E740A00CB
:1004A000526573656E643A200020746F6F206C6F24
:1004B0006E6720657874727573696F6E20707265EF
:1004C00076656E7465640A0020636F6C64206578DD
:1004D00074727573696F6E2070726576656E74657F
:1004E000640A00627573793A2070617573656420DF
:1004F000666F7220696E7075740A00627573793A5E
:100500002070617573656420666F72207573657203
:100510000A00627573793A2070726F63657373694C
:100520006E670A004B494C4C45442E20004B494C09
:100530004C20636175736564206279204B494C4C93
:1005400020627574746F6E2F70696E0A004B494C8F
:100550004C45442E20004B494C4C2063617573651B
:100560006420627920746F6F206D75636820696EF6
:100570006163746976652074696D65202D206375EB
:100580007272656E7420636F6D6D616E643A2000E7
:10059000506C6561736520726573657400505249D3
:1005A0004E5445522048414C544544005072696EA7
:1005B0007465722068616C7465642E206B696C6C64
:1005C00028292063616C6C6564210A00000000002A
:1005D000010204040000001C1C0C040404020100BD
:1005E0000000000004081000000000002D2D2D2D3B
:1005F0002D2D007C4D61726C696E7C002D2D2D2D92
:100600002D2D00687474703A2F2F6D61726C696EB5
:1006100066772E6F726700687474703A2F2F6D6161
:10062000726C696E66772E6F72670020312E312EE4
:10063000392E31002020506C616E6E6572427566F5
:1006400066657242797465733A200020467265656A
:10065000204D656D6F72793A2000436F6D70696C43
:1006600065643A204A616E20203220323032320AEC
:1006700000207C20417574686F723A204A2E204C0D
:1006800061726F6F0A00323032322D30312D3031CD
:1006900000204C61737420557064617465643A2065
:1006A00000312E312E392E310A004D61726C696E87
:1006B0000020536F667477617265205265736574AC
:1006C0000A00205761746368646F67205265736520
:1006D000740A002042726F776E206F757420526525
:1006E0007365740A002045787465726E616C2052DF
:1006F000657365740A00506F77657255700A0073F0
:10070000746172740A00000040C1000050C1000012
:100710000000000048420000484200008040000005
:1007200000005761726E696E673A20486F6D696E9E
:10073000672042756D702044697669736F72203C42
:1007400020310A000202040000A0400000A0400086
:10075000000040000054430000554300004843FFA0
:10076000FFFF6F6B004572726F7220777269746958
:100770006E6720746F20454550524F4D210A004549
:100780004550524F4D206461746173697A652065EC
:1007900072726F722E0A00290A00206279746573E2
:1007A0003B20637263200053657474696E67732025
:1007B00053746F726564202800290A0020627974DE
:1007C00065733B2063726320002073746F726564ED
:1007D0002073657474696E677320726574726965DD
:1007E000766564202800202863616C63756C6174F1
:1007F000656429210A0020213D2000454550524FC3
:100800004D20435243206D69736D61746368202DE0
:10081000202873746F7265642920002053697A65FB
:100820003A2000496E6465783A2000204D61726C70
:10083000696E3D563536290A0028454550524F4DC0
:100840003D00454550524F4D2076657273696F6E7D
:10085000206D69736D617463682000486172646320
:100860006F6465642044656661756C7420536574BB
:1008700074696E6773204C6F616465640A00282395
:100880000000282300006400000010270000000082
:10089000C8430000C8430000A0400000C84166668D
:1008A000C84266E6C8420000C84385EBBD423A0A2A
:1008B0000020286D6D290020204D383531205A0048
:1008C0005A2D50726F6265204F6666736574002002
:1008D000440020490020204D333031205000504941
:1008E000442073657474696E67733A0A0020460089
:1008F00020420020480020204D3134352053004D47
:100900006174657269616C206865617475702070CE
:100910006172616D65746572733A0A00205A002035
:100920004A0020204732392057204900205A002011
:10093000204D3432302053004175746F204265647D
:10094000204C6576656C696E673A0A00205A002073
:10095000590020204D323036205800486F6D6520F8
:100960006F66667365743A0A00204500205A0020BD
:10097000590020580020540020530020204D3230D0
:100980003520510020453C6D61785F655F6A657276
:100990006B3E0020583C6D61785F785F6A65726BD2
:1009A0003E20593C6D61785F795F6A65726B3E20CD
:1009B0005A3C6D61785F7A5F6A65726B3E00416494
:1009C00076616E6365643A20513C6D696E5F736554
:1009D000676D656E745F74696D655F75733E2053F6
:1009E0003C6D696E5F66656564726174653E205436
:1009F0003C6D696E5F74726176656C5F6665656497
:100A0000726174653E0020540020520020204D3257
:100A10003034205000416363656C65726174696FA6
:100A20006E2028756E6974732F7332293A20503CFA
:100A30007072696E745F616363656C3E20523C72D4
:100A40006574726163745F616363656C3E20543CDE
:100A500074726176656C5F616363656C3E0A002049
:100A60004500205A0020590020204D3230312058B6
:100A7000004D6178696D756D20416363656C6572C9
:100A80006174696F6E2028756E6974732F733229D3
:100A90003A0A00204500205A0020590020204D32FB
:100AA00030332058004D6178696D756D206665653D
:100AB0006472617465732028756E6974732F73296D
:100AC0003A0A00204500205A0020590020204D39C4
:100AD0003220580053746570732070657220756EF3
:100AE00069743A0A0020204D3230302044300A0028
:100AF00020204D3230302044002044697361626C04
:100B000065640A0046696C616D656E742073657476
:100B100074696E67733A0020204D313439204320C8
:100B20003B20556E69747320696E2043656C736950
:100B300075730A002020473231202020203B0054CA
:100B40005249474745524544006F70656E003A2050
:100B5000007A5F6D696E00795F6D696E00785F6D18
:100B6000696E005265706F7274696E6720656E649D
:100B700073746F70207374617475730A0020746FDE
:100B80006F206C6F6E6720657874727573696F6E15
:100B90002070726576656E7465640A0020636F6C00
:100BA0006420657874727573696F6E2070726576F3
:100BB000656E7465640A0024F4D43050C38E20C27C
:100BC000A24017828B7011127A910D816CD90AA8FC
:100BD00061E108C7586607615143061E4B5D05C1B8
:100BE00045A7041A411104093D98037139310340A6
:100BF00036DB0265339102D4305402802E1D02632D
:100C00002CEE01752AC501B028A001102781018FA3
:100C10002564012B244B01E0223401AC211F018DFE
:100C2000200D01801FFC00841EED00971DDF00B821
:100C30001CD200E61BC600201BBC00641AB200B226
:100C400019A8000A19A0006A189900D1179100404C
:100C5000178B00B516840031167E00B31579003A63
:100C6000157300C7146F0058146A00EE13660088ED
:100C700013630025135E00C7125B006C125700154A
:100C8000125400C111510070114F0021114B00D6B8
:100C90001049008D1047004610440002104200C069
:100CA0000F4000800F3E00420F3C00060F3B00CB80
:100CB0000E3800930E37005C0E3500270E3400F31B
:100CC0000D3200C10D3100900D3000600D2E00324C
:100CD0000D2D00050D2C00D90C2B00AE0C29008524
:100CE0000C29005C0C2700350C27000E0C2600E8B0
:100CF0000B2400C40B2400A00B23007D0B23005AFF
:100D00000B2100390B2100180B2000F80A1F00D915
:100D10000A1E00BB0A1E009D0A1D00800A1D0063FA
:100D20000A1C00470A1B002C0A1B00110A1A00F7B4
:100D3000091A00DD091900C4091900AB091900924C
:100D40000917007B091800630917004C09160036C3
:100D5000091600200916000A091500F5081500E01B
:100D6000081400CC081400B8081400A4081400905B
:100D70000813007D0812006B081300580812004683
:100D80000812003408110023081100120811000194
:100D9000081100F0071000E0071000D0071000C095
:100DA000071000B0070F00A107100091070E008385
:100DB000070F0074070F0065070E0057070E004964
:100DC000070E003B070D002E070E0020070D001335
:100DD000070D0006070D00F9060C00ED060D00E0FA
:100DE000060C00D4060C00C8060C00BC060C00B0B3
:100DF000060C00A4060B0099060C008D060B008261
:100E0000060B0077060B006C060B0061060A005704
:100E1000060B004C060A0042060A0038060A002E9D
:100E2000060A0024060A001A060A0010060900072E
:100E3000060A00FD050900F4050900EB050900E2BA
:100E4000050900D9050900D0050900C7050900BE3C
:100E5000050900B5050800AD050800A50509009CB9
:100E6000050800940508008C050800840508007C2E
:100E7000050800740508006C050700650508005D9D
:100E8000050700560508004E050700470507004006
:100E900005080038050700310507002A050700236B
:100EA0000507001C050600160507000F05070008CA
:100EB00005060002050700FB040600F5040700EE26
:100EC000040600E8040600E2040700DB040600D57F
:100ED000040600CF040600C9040600C3040600BDD2
:100EE000040600B7040600B1040500AC040600A621
:100EF000040600A00405009B04060095040500906C
:100F00000406008A04050085040500800406007AB2
:100F100004050075040500700405006B04050066F7
:100F2000040500610405005C040500570405005237
:100F30000405004D04050048040500430405003E77
:100F40000404003A04050035040500300404002CB4
:100F500004050027040400230405001E0404001AED
:100F600004040016040500110404000D0404000923
:100F70000405000404040000040400FC030400F859
:100F8000030400F4030400F0030400EC030400E88D
:100F9000030400E4030400E0030400DC030400D8BD
:100FA000030400D4030400D0030400CC030400C8ED
:100FB000030300C503030024F404D9201BC40C5C04
:100FC0000E9804C4095F0265077101F405F900FB7E
:100FD00004B30048048700C10369005803550003A7
:100FE000034500BE023A008402310053022A002960
:100FF00002250004022000E4011C00C8011900AF12
:1010000001170098011400840113007101100061A0
:1010100001100051010E0043010D0036010B002BA1
:10102000010B0020010B00150109000C0109000350
:10103000010800FB000800F3000800EB000700E4D3
:10104000000600DE000600D8000600D2000600CC34
:10105000000500C7000500C2000500BD000400B97E
:10106000000400B5000400B1000400AD000400A9B4
:10107000000400A5000300A20003009F0004009BE1
:101080000003009800030095000200930003009005
:101090000003008D0002008B000300880002008620
:1010A00000020084000300810002007F0002007D36
:1010B0000002007B00020079000200770001007648
:1010C0000002007400020072000100710002006F53
:1010D0000002006D0001006C0002006A000100695E
:1010E0000002006700010066000100650001006465
:1010F0000002006200010061000100600001005F69
:101100000002005D0001005C0001005B0001005A6C
:10111000000100590001005800010057000100566D
:10112000000100550001005400010053000000536D
:101130000001005200010051000100500001004F69
:101140000001004E0000004E0001004D0001004C67
:101150000001004B0000004B0001004A0001004963
:10116000000100480000004800010047000100465F
:101170000000004600010045000000450001004459
:101180000001004300000043000100420000004253
:101190000001004100000041000100400001003F4B
:1011A0000000003F0001003E0000003E0001003D45
:1011B0000000003D0001003C0000003C0000003C3D
:1011C0000001003B0000003B0001003A0000003A33
:1011D000000100390000003900010038000000382B
:1011E0000000003800010037000000370001003621
:1011F0000000003600000036000100350000003518
:10120000000000350001003400000034000000340C
:101210000001003300000033000000330001003201
:1012200000000032000000320001003100000031F7
:1012300000000031000100300000003000000030EC
:101240000001002F0000002F0000002F0000002FE1
:101250000001002E0000002E0000002E0001002DD5
:101260000000002D0000002D0000002D0001002CCA
:101270000000002C0000002C0000002C0001002BBE
:101280000000002B0000002B0000002B0001002AB2
:101290000000002A0000002A0000002A00010029A6
:1012A000000000290000002900000029000000299A
:1012B000000100280000002800000028000000288D
:1012C0000000002800010027000000270000002780
:1012D0000000002700000027000100260000002673
:1012E0000000002600000026000000260001002566
:1012F000000000250000002500000025000000255A
:10130000000000250001002400000024000000244B
:10131000000000240000002400010023000000233E
:101320000000002300000023000000230000002331
:101330000000002300010022000000220000002223
:101340000000002200000022000000220001002115
:101350000000002100000021000000210000002109
:1013600000000021000000210001002000000020FA
:1013700000000020000000200000002000000020ED
:1013800000000020000000200001001F0000001FDE
:101390000000001F0000001F0000001F0000001FD1
:1013A0000000001F0001001E0000001E0000001EC3
:1013B0000000001E000000043700001E290000513C
:1013C0001B00005810000010090000CC0400007839
:1013D0000200004101000023646566696E652044D7
:1013E000454641554C545F4B642000236465666953
:1013F0006E652044454641554C545F4B692000239F
:10140000646566696E652044454641554C545F4BA2
:10141000702000504944204175746F74756E6520CA
:1014200066696E69736865642120507574207468FC
:1014300065206C617374204B702C204B6920616EA9
:1014400064204B6420636F6E7374616E74732066E6
:10145000726F6D2062656C6F7720696E746F2043C8
:101460006F6E66696775726174696F6E2E680A00C7
:10147000504944204175746F74756E6520666169CA
:101480006C6564212074696D656F75740A0050493C
:1014900044204175746F74756E65206661696C6572
:1014A00064212054656D7065726174757265207475
:1014B0006F6F20686967680A00204B643A2000203B
:1014C0004B693A2000204B703A20000A20436C619F
:1014D0007373696320504944200A002054753A20F0
:1014E00000204B753A2000206D61783A2000206D75
:1014F000696E3A200020643A200020626961733AE4
:101500002000504944204175746F74756E652073D6
:10151000746172740A00504944204175746F747587
:101520006E65206661696C6564212054656D706527
:1015300072617475726520746F6F20686967680ADC
:1015400000504944204175746F74756E6520666162
:10155000696C6564212042616420657874727564E9
:101560006572206E756D6265720A006265640A00BC
:101570002C2073797374656D2073746F707065645B
:1015800021204865617465725F49443A200070010A
:101590002C0190012701B0012201C0011D01F001C1
:1015A00018011002130130020E01600209019002BD
:1015B0000401C002FF000003FA004003F5008003AD
:1015C000F000D003EB002004E6007004E100E0042A
:1015D000DC004005D700C005D2004006CD00D00693
:1015E000C8008007C3003008BE00F008B900C00979
:1015F000B400B00AAF00B00BAA00D00CA500000EDA
:10160000A000500F9B00C0109600501291000014D3
:101610008C00C0158700B0178200B0197D00D01B68
:101620007800001E730040206E0090226900F024B4
:10163000640040275F0090295A00E02B5500102ECF
:10164000500020304B0010324600E033410090350E
:101650003C001037370070383200A0392D00B03A06
:101660002800A03B2300603C1E00103D1900903D67
:101670001400103E0F00703E0A00C03E0500003FFF
:101680000000403FFBFF803FF6FFC03FF1FF4531C8
:10169000204572723A204D415854454D50004572D4
:1016A000723A204D415854454D5020424544004D1A
:1016B000415854454D50207472696767657265647E
:1016C000004531204572723A204D494E54454D50E7
:1016D000004572723A204D494E54454D50204245C6
:1016E00044004D494E54454D5020747269676765FA
:1016F00072656400202F002042403A0020403A00EA
:1017000025753A2530327500253032753A2530324C
:10171000750020202020202000202020200033449D
:10172000205072696E7465722052656164792E0072
:101730005072696E74696E672E2E2E005072696E3B
:10174000742070617573656400436D643A2053744E
:101750006F7700436D643A204465706C6F79004385
:101760006D643A2053656C662D5465737400436D47
:10177000643A2053572D4D6F646500436D643A20E1
:101780005265736574004D61696E00436F6E7472CB
:101790006F6C00507265706172650054756E650003
:1017A000496E666F2073637265656E00466C6F7775
:1017B00000466C6F770046616E207370656564004B
:1017C00046616E2073706565640042656400426521
:1017D00064004E6F7A7A6C65004E6F7A7A6C6500A1
:1017E00046616465204865696768740046616465A0
:1017F00020486569676874005370656564005370BC
:10180000656564004D61696E00507265686561745C
:1018100020504C4120456E640050726568656174CB
:1018200020504C41204265640050726568656174C7
:1018300020504C41005072657061726500507265B5
:10184000686561742041425320456E6400507265A2
:10185000686561742041425320426564005072659E
:101860006865617420414253005072657061726511
:101870000053746F72652073657474696E677300CA
:101880004C6F61642073657474696E677300507285
:101890006F6265205A204F66667365740050726FE0
:1018A0006265205A204F6666736574004661646500
:1018B0002048656967687400466164652048656909
:1018C000676874004F6666004F6E200042656420B2
:1018D0004C6576656C696E67004C6576656C206258
:1018E0006564004732380A473239004732390041CF
:1018F00075746F20686F6D650047323800507265EF
:1019000070617265004D343238004D3830005377C5
:101910006974636820706F776572206F6666004D2A
:10192000383100436D643A205265736574004D325E
:101930003830205030205331363000436D643A2027
:1019400053656C662D54657374004D3238302050E9
:101950003020533132300050726568656174204127
:101960004253005072656865617420504C410043D9
:101970006F6F6C646F776E00537769746368207063
:101980006F776572206F6E0044697361626C6520C9
:101990007374657070657273004D383400536574EC
:1019A00020686F6D65206F666673657473004265AD
:1019B00064204C6576656C696E67004175746F20B4
:1019C000686F6D6500473238004D6F76652061782D
:1019D0006973004D61696E004D6F76652058004D4A
:1019E0006F76652059004D6F7665205A00457874F2
:1019F0007275646572004D6F766520302E316D6DA5
:101A0000004D6F766520316D6D004D6F766520312C
:101A1000306D6D004D6F7665206178697300457893
:101A2000747275646572004D6F7665205A004D6F53
:101A300076652059004D6F766520580045787472A0
:101A400075646572004D6F7665205A004D6F76653E
:101A50002059004D6F766520580050726570617294
:101A60006500496E697469616C697A652045455005
:101A7000524F4D00436F6E74726F6C0052657374F9
:101A80006F7265206661696C73616665004C6F6199
:101A9000642073657474696E677300496E69746954
:101AA000616C697A6520454550524F4D0053746F03
:101AB00072652073657474696E677300424C546F6D
:101AC0007563680046696C616D656E74004D6F7476
:101AD000696F6E0054656D70657261747572650032
:101AE0004D61696E005072656865617420414253B2
:101AF00020636F6E66005072656865617420504C9B
:101B00004120636F6E66005049442D4400504944A3
:101B10002D44005049442D49005049442D4900505E
:101B200049442D50005049442D5000200220466168
:101B300063740020022046616374002002204D611E
:101B400078002002204D6178002002204D696E004F
:101B50002002204D696E004F6666004F6E200041E6
:101B600075746F74656D700046616E207370656585
:101B7000640046616E2073706565640042656400B0
:101B8000426564004E6F7A7A6C65004E6F7A7A6CAB
:101B90006500436F6E74726F6C0053746F726520D2
:101BA00073657474696E67730042656400426564AE
:101BB000004E6F7A7A6C65004E6F7A7A6C650046DB
:101BC000616E2073706565640046616E2073706598
:101BD00065640054656D7065726174757265005658
:101BE00054726176206D696E005654726176206D74
:101BF000696E00566D696E00566D696E00566D61B6
:101C000078204500566D6178204500566D6178203A
:101C10005A00566D6178205A00566D61782059003F
:101C2000566D6178205900566D6178205800566DC8
:101C300061782058004D6F74696F6E00416D617856
:101C4000204500416D6178204500416D6178205A42
:101C500000416D6178205A00416D61782059004142
:101C60006D6178205900416D6178205800416D61A7
:101C700078205800412D74726176656C00412D7496
:101C8000726176656C00412D7265747261637400D7
:101C9000412D7265747261637400416363656C0009
:101CA000416363656C004D6F74696F6E0056652DFE
:101CB0006A65726B0056652D6A65726B00567A2DE7
:101CC0006A65726B00567A2D6A65726B0056792DC3
:101CD0006A65726B0056792D6A65726B0056782DB5
:101CE0006A65726B0056782D6A65726B004D6F7471
:101CF000696F6E004573746570732F6D6D00457369
:101D0000746570732F6D6D005A73746570732F6DE9
:101D10006D005A73746570732F6D6D00597374651F
:101D200070732F6D6D005973746570732F6D6D0036
:101D30005873746570732F6D6D005873746570738C
:101D40002F6D6D004D6F74696F6E00434F4D4D5593
:101D50004E49434154494F4E0044525952554E004A
:101D60004552524F525300494E464F004543484F4B
:101D70000053746570732F6D6D004A65726B00417E
:101D80006363656C65726174696F6E0056656C6F34
:101D9000636974790050726F6265205A204F6666DD
:101DA0007365740050726F6265205A204F666673C7
:101DB000657400436F6E74726F6C0046696C2E2000
:101DC0004469612E0046696C2E204469612E004FE3
:101DD0006666004F6E20004520696E206D6D3300F1
:101DE000436F6E74726F6C00040E1F041C000000C1
:101DF000000E1315110E00001C1018170506050023
:101E0000040A0A0A0A11110E0C12120C000000003A
:101E1000001F1511151F00000000210024002700DD
:101E20002A002D00300033000101000004010701E9
:101E30000A0100002200250028002B002E0031009E
:101E4000340002010000050108010B010000200020
:101E50002300260029002C002F0032000001000082
:101E6000030106010901050505050705080808081D
:101E7000020202020A0A0808040404040101010122
:101E8000010101010303030303030303040707071D
:101E90000C0C0C0C0C0C0C0C0202020206060606C2
:101EA000060606060B0B0B0B0B0B0B0B010210208F
:101EB0002008081020401020408002010201080480
:101EC0000201010204081020408080402010080414
:101ED000020180040201804020100804020108046D
:101EE00002010102040810204080010204081020B1
:101EF000408000000A0B02090C0D0E0807030401C4
:101F000000000000000000000000000000000000D1
:101F1000000000000000000000000000000012119E
:101F200010000000000000000000000000000000A1
:101F3000000000000000000047322F47332062619C
:101F40006420706172616D65746572730A00536C10
:101F50006565702E2E2E00486F6D652058592066DD
:101F6000697273740A00486F6D652058592066695C
:101F700072737400205A3A200020593A20004265BA
:101F80006420583A20004D65736820706F696E7444
:101F90002063616E6E6F74206265207265736F6C72
:101FA0007665640A00436C69636B20746F20726508
:101FB00073756D652E2E2E004E6F206D6F76652E1B
:101FC000002569730025696D2025697300256968FE
:101FD0002025696D202569730025696420256968BD
:101FE0002025696D2025697300256979202569649C
:101FF000202569682025696D202569730050726964
:102000006E742074696D653A20006F6666006C1D01
:10201000671D601D591D4B1D44454255473A004BF5
:10202000494C4C45442E20004D3131332053006F34
:102030006B0050533A310A0050533A300A0033448F
:10204000205072696E746572204F66662E002C20D7
:10205000002C2000544845524D414C5F50524F5483
:10206000454354494F4E004155544F5245504F52ED
:10207000545F53445F53544154555300454D4552AA
:1020800047454E43595F50415253455200434153D7
:10209000455F4C494748545F4252494748544E4572
:1020A000535300544F47474C455F4C49474854539E
:1020B00000534F4654574152455F504F57455200C9
:1020C0004255494C445F50455243454E54004C459F
:1020D00056454C494E475F44415441005A5F505267
:1020E0004F4245004155544F4C4556454C005052C7
:1020F000494E545F4A4F420050524F475245535346
:10210000004155544F5245504F52545F54454D5025
:1021100000564F4C554D4554524943004545505289
:102120004F4D0053455249414C5F584F4E5F584FF9
:102130004646004649524D574152455F4E414D4536
:102140003A4D61726C696E20312E312E392E31205C
:10215000284769746875622F6C61726F6F2920530C
:102160004F555243455F434F44455F55524C3A6883
:10217000747470733A2F2F6769746875622E636F79
:102180006D2F4D61726C696E4669726D7761726513
:102190002F4D61726C696E2050524F544F434F4C1B
:1021A0005F56455253494F4E3A312E30204D4143F0
:1021B00048494E455F545950453A3344205072695E
:1021C0006E7465722045585452554445525F434FD2
:1021D000554E543A3120555549443A636564653249
:1021E0006132662D343161322D343734382D396205
:1021F00031322D6335356336326633363766660ADB
:10220000002F2F20004D31343520533C696E64651A
:10221000783E206F7574206F662072616E6765204E
:1022200028302D31290A00205400205200416363D8
:10223000656C65726174696F6E3A20500057415247
:102240004E494E4721204C6F77205A204A65726BC9
:10225000206D6179206C65616420746F20756E77E4
:10226000616E746564207061757365732E0A002059
:10227000466C6F773A2000000136372603FFFFFFD8
:10228000353C3D380EFFFFFF312E303E12FFFFFF81
:10229000FF28FF0C0809FFFFFF1A1C18FFFF2A0880
:1022A000440AFF433A200020536572766F200020D5
:1022B0006F7574206F662072616E67650A005365E2
:1022C00072766F200043290A0061626C65642028E1
:1022D0006D696E2074656D702000436F6C642065BD
:1022E000787472756465732061726520004E6F208A
:1022F00063617365206C696768740A004D65736873
:1023000020706F696E742063616E6E6F74206265F9
:10231000207265736F6C7665640A004D343231202B
:10232000696E636F727265637420706172616D654E
:102330007465722075736167650A00454550524F98
:102340004D204F4B0A003F5A206F7574206F662056
:1023500072616E676520282D323020746F20323014
:10236000290A003A200050726F6265205A204F6699
:10237000667365740041637469766520457874728C
:10238000756465723A2000496E76616C69642065F7
:10239000787472756465720A00456E6473746F7048
:1023A0007320256320256320256320256300205AA0
:1023B0003A0020593A0020583A00656E6473746FF1
:1023C0007073206869743A2000556E6B6E6F776E7B
:1023D00020636F6D6D616E643A20220050726F62EF
:1023E000696E67206661696C65640A0050726F628D
:1023F000696E67206661696C656400205A3A200046
:1024000020593A200042656420583A2000486F6DF8
:102410006520257325732573206669727374002007
:1024200066697273740A005A0059005800486F6D4B
:102430006520006563686F3A004572726F723A00FA
:10244000DAB611241FBECFEFD1E2DEBFCDBF00E070
:102450000CBF13E0A0E0B2E0EEE9FFEA01E00BBF41
:1024600002C007900D92A233B107D9F72EE0A2E384
:10247000B3E001C01D92A03BB207E1F712E1C1E257
:10248000D2E100E006C021970109802FFE010E94E1
:1024900075D7C032D10780E00807A9F70E945DB761
:1024A0000C94CDD70C9400002CEA35EC47E25EE3A7
:1024B0006091450A7091460A8091470A9091480AB6
:1024C0000E9456D56093490A70934A0A80934B0A3A
:1024D00090934C0A08952CEA35EC47E25EE3609154
:1024E0004D0A70914E0A80914F0A9091500A0E94B5
:1024F000A7D06093510A7093520A8093530A909325
:10250000540A08956091430270914402072E000C12
:10251000880B990B0E9448D02AE037ED43E25CE338
:102520000E94A7D020914B0B30914C0B40914D0B4A
:1025300050914E0B0E94A7D060933F0270934002CF
:1025400080934102909342020895089508958F92D6
:102550009F92AF92BF92CF92DF92EF92FF920F9332
:102560001F93CF93DF93B0E4A0E06A2F70E0AB013C
:102570004B0F511D559547954A1711F0B41319C0CB
:10258000ECE8F6E165917491072E000C880B990B2D
:102590000E9448D0DF91CF911F910F91FF90EF9053
:1025A000DF90CF90BF90AF909F908F900895B42F01
:1025B000DECF9A0121503109220F331F220F331F22
:1025C000F901E257FA4EE590F490F901EE56FA4E11
:1025D000C591D4918E159F0554F3A42FC817D90720
:1025E0000CF4C3CFF901E057FA4E05911491F901AB
:1025F000EC56FA4EC590D490BC016E197F09072E97
:10260000000C880B990B0E9448D04B015C01B6016D
:10261000601B710B072E000C880B990B0E9448D091
:102620009B01AC01C501B4010E94A7D04B015C0124
:10263000BE016E197F09072E000C880B990B0E94B2
:1026400048D09B01AC01C501B4010E9456D56B0175
:102650007C01B801110F880B990B0E9448D09B0197
:10266000AC01C701B6010E947AD494CF8F929F9299
:10267000AF92BF92CF92DF92EF92FF920F931F9390
:10268000CF93DF93B0E4A0E06A2F70E0AB014B0F73
:10269000511D55954795A41711F0B41319C0ECE8D6
:1026A000F6E165917491072E000C880B990B0E943E
:1026B00048D0DF91CF911F910F91FF90EF90DF9065
:1026C000CF90BF90AF909F908F900895B42FDECFA2
:1026D0009A0121503109220F331F220F331FF901B4
:1026E000E257FA4EE590F490F901EE56FA4EC59194
:1026F000D4918E159F0554F3A42FC817D9070CF455
:10270000C3CFF901E057FA4E05911491F901EC5647
:10271000FA4EC590D490BC016E197F09072E000CAB
:10272000880B990B0E9448D04B015C01B601601BDD
:10273000710B072E000C880B990B0E9448D09B014F
:10274000AC01C501B4010E94A7D04B015C01BE01E0
:102750006E197F09072E000C880B990B0E9448D038
:102760009B01AC01C501B4010E9456D56B017C01EF
:10277000B801110F880B990B0E9448D09B01AC0146
:10278000C701B6010E947AD494CF1092AD0A10927C
:10279000BD091092BE091092BF091092C009109293
:1027A000A90A1092AA0A1092AB0A1092AC0A1092CF
:1027B000B9091092BA091092BB091092BC09089588
:1027C00090916F00292F227091FF05C090916F00AA
:1027D0009D7F90936F0034E0839FC0011124FC0122
:1027E000E457F54F40815181628173818355964F43
:1027F000FC01408351836283738381E08093AC0941
:10280000222329F080916F00826080936F000895E9
:10281000BC012091AA093091AB094091AA095091BD
:10282000AB092417350731F481E02617370709F083
:1028300080E008959A01F1CF8091630980FF24C060
:1028400089988FEF80930E028091630981FF1FC0EA
:102850008F9A8FEF80930F028091630982FF1AC0D5
:1028600080910B018270809309018FEF8093100299
:102870008091630983FF16C016988FEF8093110231
:102880000000000000000895899A81E0DBCF8F9856
:1028900081E0E0CF80910B018095827080930901E7
:1028A00081E0E4CF169A81E0E9CFCF93DF93909156
:1028B0006F00292F227091FF05C090916F009D7FBE
:1028C00090936F0094E0899FA0011124FA01E457CE
:1028D000F54F6081718182819381222329F02091BB
:1028E0006F00226020936F00EA01C058DB4F0E9406
:1028F00048D0288139814A815B810E94A7D0DF912D
:10290000CF910895CF92DF92EF92FF928091F60AD5
:10291000882309F457C0C090F20AD090F30AE090DF
:10292000F40AF090F50A20E030E0A901C701B601F1
:102930000E9442D0882309F445C020E030E040E006
:102940005FE3C701B6010E94A7D09B01AC010E94C2
:10295000A7D02BED3FE049E450E40E94A7D09B01B3
:10296000AC0160E070E080E89FE30E9456D56B0107
:102970007C01C0924B0BD0924C0BE0924D0BF0922D
:102980004E0B6091430270914402072E000C880B9D
:10299000990B0E9448D02AE037ED43E25CE30E94A5
:1029A000A7D0A70196010E94A7D060933F02709321
:1029B00040028093410290934202FF90EF90DF909B
:1029C000CF900895C12CD12C80E8E82E8FE3F82E0B
:1029D000D0CF80916F00982F927081FF05C08091B9
:1029E0006F008D7F80936F0010925A0A10925B0ADD
:1029F00010925C0A10925D0A992329F080916F0071
:102A0000826080936F0008950F931F938091D40D7F
:102A10009091D50D891B8F7009F449C09091D10D0B
:102A2000992361F0833040F48FEF890F29F0809370
:102A3000D10D90E080E038C01092D10D8091D50D7D
:102A40002DE4829FC00111248D569B4FFC012081F3
:102A500020FDEFCF40915A0A50915B0A60915C0AC9
:102A600070915D0AE75BFF4F008111812281338104
:102A7000401B510B620B730B40935A0A50935B0A35
:102A800060935C0A70935D0A2091D50D2F5F2F70C3
:102A90002093D20D3091D50D2091D30D321304C067
:102AA0002091D20D2093D30D1F910F91089591DFA6
:102AB000C0CFCF93DF938091E50A811105C080914B
:102AC0002E0A882309F458C08091760465994EC077
:102AD000816080937604909103018091760491FD4A
:102AE00047C0826080937604809176044B9942C0FF
:102AF0008B7F80937604C0919D09C0FF0FC08091A9
:102B0000630980FF0BC08091760480FF07C080912D
:102B1000420D81608093420D80E052DEC1FF0FC004
:102B20008091630981FF0BC08091760481FF07C00B
:102B30008091420D82608093420D81E041DEC2FFB0
:102B40001BC08091630982FF17C080912E0A8823E1
:102B500099F08091760482FF0FC08091420D8460CD
:102B60008093420D82E0DF91CF912ACE8E7FB1CF4C
:102B70008D7FB8CF8460BDCFDF91CF9108955F9AEC
:102B800080917C0D8E7F80937C0D8A9A80917C0D44
:102B90008D7F80937C0D809108018095817080935A
:102BA000060180917C0D8B7F80937C0D129A089595
:102BB000CF92DF92EF92FF926091840A7091850A22
:102BC000072E000C880B990B0E9448D06B017C01EA
:102BD0002DEB37E346E855EB0E94A0D687FD0BC0EE
:102BE0002DEB37E346E855E3C701B6010E9442D01A
:102BF00018160CF043C0A701960160E070E080E871
:102C00009FE30E9456D560934E0470934F048093C7
:102C10005004909351046091860A7091870A072EA0
:102C2000000C880B990B0E9448D06B017C012DEBA6
:102C300037E346E855EB0E94A0D687FD0AC02DEB8E
:102C400037E346E855E3C701B6010E9442D01816A3
:102C5000CCF4A701960160E070E080E89FE30E9459
:102C600056D5609352047093530480935404909308
:102C70005504FF90EF90DF90CF90089560E070E0F2
:102C8000CB01C1CF60E070E0CB01EBCF909134037A
:102C9000E92FF0E0E954F44F80839F5F943040F4D3
:102CA000909334038091440D8F5F8093440D089579
:102CB00010923403F7CF8F929F92AF92BF92CF9230
:102CC000DF92EF92FF92CF93DF93EC018090F209B5
:102CD0009090F309A090F409B090F50920E030E05D
:102CE000A901C501B4010E9442D0882309F452C051
:102CF000C880D980EA80FB80A7019601C501B40194
:102D00000E9442D018160CF04AC02091A0033091C6
:102D1000A1034091A2035091A303C701B6010E94F1
:102D200042D0882321F1C092A003D092A103E09267
:102D3000A203F092A3032091A4033091A503409134
:102D4000A6035091A703C701B6010E94A7D09B011B
:102D5000AC0160E070E080E89FE30E9479D460936A
:102D6000000270930102809302029093030260912B
:102D70000002709101028091020290910302DF91A2
:102D8000CF91FF90EF90DF90CF90BF90AF909F904A
:102D90008F90089560E070E080E89FE3F0CF60E0FE
:102DA00070E0CB01ECCF80912804909129042FEFA3
:102DB0003FEF981751F0E92FF0E0E855FC4F2081E4
:102DC00030E09F5F9F7790932904C9010895CF92C7
:102DD000DF92EF92FF92CF93C82F0E946A9E6B0101
:102DE0007C0124EA30E74DE75FE360913B0A709194
:102DF0003C0A80913D0A90913E0A0E9442D087FD94
:102E000018C08AEF90E0A0E0B0E08C0D9D1DAE1DD3
:102E1000BF1D8093560A9093570AA093580AB09307
:102E2000590AC0933602CF91FF90EF90DF90CF9078
:102E3000089580E090E0DC01E8CF0F931F93CF93DB
:102E4000DF93EC010E946A9E0E811F8128853985DF
:102E5000011511052105310579F52C85222339F15C
:102E6000EA8521502C8721E02E0F2A873D852313E8
:102E700001C01A86F0E03196EE0FFF1FEE0FFF1F24
:102E8000EC0FFD1F02851385248535850A831B837E
:102E90002C833D83600F711F811D911D6E837F8385
:102EA000888799878C819D81892B09F0409ADF91D1
:102EB000CF911F910F910895601B710B820B930BA3
:102EC00097FDF5CF40981E821F8218861986EFCF96
:102ED000CF93DF9300D01F92CDB7DEB7882349F0A0
:102EE0000E94F5AB0F900F900F900F90DF91CF9154
:102EF000089588EB91E09C838B8384E190E09A8332
:102F00008983BE016D5F7F4FCE0101960E9471974C
:102F1000E9CF8091DB099091DC0919DB6093240AE9
:102F20007093250A8093260A9093270A8091D709E7
:102F30009091D8099BDB6093200A7093210A8093BB
:102F4000220A9093230AA8951092DD090895CF9242
:102F5000DF92EF92FF920F931F93CF93DF936B015A
:102F60007A01EC01C057DB4F28813CE0389F80019B
:102F7000399F100D112427FF24C0FB0111821082FC
:102F800088818F5F888388819801280F311D87FD94
:102F90003A95C9012091660EF6012817190629F005
:102FA00024F088818C300CF43CC08081918104969F
:102FB00080349C4908F475C0F601808191810496A3
:102FC00072C088819801280F311D87FD3A95C9018B
:102FD0002091660E2817190699F294F28881A801AB
:102FE000480F511D87FD5A95FA01EE0FFF1FE40FA0
:102FF000F51FE650F24F808186FFC2CF8881F8012D
:10300000E80FF11D87FDFA95CF01EE0FFF1FE80FC6
:10301000F91FE650F24F808160E08F730E94C69BDB
:10302000AFCF808191812881A801420F511D27FDDA
:103030005A959A01FA01EE0FFF1FE20FF31FE650B7
:10304000F24F21813281820F931FF7019183808398
:1030500088819801280F311D87FD3A95F901EE0FFF
:10306000FF1FE20FF31FE650F24F808186FF20C062
:103070008881080F111D87FD1A95F801EE0FFF1FBB
:10308000E00FF11FE650F24F808161E08F73DF9116
:10309000CF911F910F91FF90EF90DF90CF900C9404
:1030A000C69B80E49CE9F701918380838FEF88833E
:1030B000DF91CF911F910F91FF90EF90DF90CF9014
:1030C00008954F925F926F927F928F929F92AF92EC
:1030D000BF92CF92DF92EF92FF92CF93DF93CDB763
:1030E000DEB76A970FB6F894DEBF0FBECDBF9A8FDA
:1030F000898F5B014A01DC01D7966D917D918D919D
:103100009C91DA970E9446D06B017C01F5012081E9
:103110003181428153810E94A7D00E9440D50E94F4
:10312000C3D53B015C01D4012D913D914D915C9142
:10313000C701B6010E94A7D00E9440D50E94C3D506
:103140006D827E82AF82B8862D813E814F81588507
:10315000283731054105510540F428E730E040E0CB
:1031600050E02D833E834F83588769837A838B8316
:103170009C8389819A81AB81BC8188379105A105A7
:10318000B10540F428E730E040E050E029833A837D
:103190004B835C83E98DFA8DED5BFF4F80819181DC
:1031A000A281B38189879A87AB87BC87BC01CD0197
:1031B0000E9448D02B013C016D817E818F819885D2
:1031C0000E9446D0698B7A8B8B8B9C8B20E030E001
:1031D000A901C301B2010E9442D0882309F43BC176
:1031E000A7019601C701B6010E94A7D04B015C015F
:1031F00029893A894B895C89CA01B9010E94A7D003
:103200009B01AC01C501B4010E9479D44B015C0162
:10321000A3019201C301B2010E947AD49B01AC01C7
:10322000C501B4010E9456D50E9440D50E94C3D565
:103230006D877E878F87988B69857A858B859C853E
:1032400090958095709561957F4F8F4F9F4F0E940D
:1032500048D04B015C0169817A818B819C810E94FD
:1032600046D069877A878B879C8720E030E0A90168
:10327000C501B4010E9442D0882309F4F0C0298519
:103280003A854B855C85CA01B9010E94A7D06D8B38
:103290007E8B8F8B988FA7019601C701B6010E9484
:1032A000A7D09B01AC016D897E898F89988D0E9482
:1032B00079D46B017C01A5019401C501B4010E9480
:1032C0007AD49B01AC01C701B6010E9456D50E9479
:1032D000EFD5A98DBA8D95968D909D90AD90BC90AF
:1032E0009897750164012D853E854F855889C21ACE
:1032F000D30AE40AF50A0E94C3D5C61AD70AE80A17
:10330000F90AF7FE6EC020E030E0A901C301B20166
:103310000E9442D0882309F4A6C0C501B4010E94CE
:1033200046D06B017C01A3019201C301B2010E944E
:103330007AD49B01AC01C701B6010E94A7D06B01F2
:103340007C0129893A894B895C89CA01B9010E94AB
:10335000A7D09B01AC01C701B6010E9479D46B01D3
:103360007C0129853A854B855C85CA01B9010E949B
:10337000A7D09B01AC01C701B6010E947AD46B01B2
:103380007C0120E030E040E850E4C301B2010E943B
:10339000A7D09B01AC01C701B6010E9456D50E947F
:1033A00040D56B017C0120E030E0A9010E94A0D64D
:1033B00018161CF0C12CD12C7601C701B6010E9451
:1033C000C3D56D877E878F87988B86169706A8064C
:1033D000B90620F48D869E86AF86B88AC12CD12C82
:1033E00076018D859E85AF85B889E98DFA8D82A796
:1033F00093A7A4A7B5A7C80ED91EEA1EFB1EDF011E
:10340000C6A6D7A6E0AAF1AA2D813E814F81588594
:1034100023AF34AF45AF56AFDF9629813A814B8158
:103420005C812D933D934D935C9313976A960FB6F1
:10343000F894DEBF0FBECDBFDF91CF91FF90EF902C
:10344000DF90CF90BF90AF909F908F907F906F90C4
:103450005F904F90089560E070E0CB01E5CE60E0B2
:1034600070E0CB0134CF60E070E0CB0198CF4F9299
:103470005F926F927F928F929F92AF92BF92CF9204
:10348000DF92EF92FF920F931F93CF93DF93EC01A4
:103490006091880A7091890A072E000C880B990B9D
:1034A0000E9448D09B01AC01688179818A819B810F
:1034B0000E9479D46B017C0160918A0A70918B0A19
:1034C000072E000C880B990B0E9448D09B01AC0181
:1034D0006C817D818E819F810E9479D44B015C013A
:1034E000A701960160910A0270910B0280910C0273
:1034F00090910D020E9442D0882309F45AC0C092D4
:103500000A02D0920B02E0920C02F0920D0220917E
:103510004E0430914F044091500450915104C70122
:10352000B6010E94A7D02B013C010E94EFD56B0190
:103530007C0120E030E0A9010E9442D087FD7AC0E2
:1035400020E030E040E850E4C701B6010E94A0D678
:10355000181634F4C12CD12CC0E8EC2EC0E4FC2E9B
:10356000A7019601C301B2010E9479D42B013C014D
:1035700020E030E0A9010E9442D087FD5FC0409268
:103580004A0450924B0460924C0470924D04C7015F
:10359000B6010E94BED560934904062E000C770B3D
:1035A0006F5F7F4F6430710514F064E070E06093EA
:1035B0004804D091050210914904A501940160913D
:1035C00006027091070280910802909109020E9400
:1035D00042D081113CC0D11394C020912A04309173
:1035E0002B0440912C0450912D0460914A04709159
:1035F0004B0480914C0490914D040E94A7D02091DF
:103600002E0430912F0440913004509131040E94D7
:103610007AD4DF91CF911F910F91FF90EF90DF90BF
:10362000CF90BF90AF909F908F907F906F905F9062
:103630004F900895C12CD12C760192CF10924A045C
:1036400010924B0410924C0410924D04A0CF809223
:10365000060290920702A0920802B09209022091FD
:103660005204309153044091540450915504C501C3
:10367000B4010E94A7D04B015C010E94EFD56B0101
:103680007C0120E030E0A9010E9442D087FDF9C012
:1036900020E030E040E850E4C701B6010E94A0D627
:1036A000181634F4C12CD12CB0E8EB2EB0E4FB2E6C
:1036B000A7019601C501B4010E9479D44B015C01B8
:1036C00020E030E0A9010E9442D087FDDEC0809258
:1036D000440490924504A0924604B0924704C70166
:1036E000B6010E94BED560934304062E000C770BF2
:1036F0006F5F7F4F6430710514F064E070E0609399
:103700004204C0914304D11305C0809104028C1778
:1037100009F46CC010930502C09304020C2E000C37
:10372000DD0B25E01203C0011124FC01EC0FFD1F8D
:10373000EE0FFF1FEE0FFF1FEF5AF44F2081318174
:103740004281538120933E0430933F0440934004D0
:103750005093410400914204002E000C110BFC0117
:10376000E00FF11FEE0FFF1FEE0FFF1FEF5AF44F98
:1037700060817181828193810E9479D460933A043F
:1037800070933B0480933C0490933D042091480443
:1037900035E02303F0011124CE0FDF1FCC0FDD1F16
:1037A000CC0FDD1FCF5AD44F288139814A815B81EC
:1037B00020933604309337044093380450933904EF
:1037C000E00FF11FEE0FFF1FEE0FFF1FEF5AF44F38
:1037D00060817181828193810E9479D460933204E7
:1037E00070933304809334049093350480904404A0
:1037F00090904504A0904604B090470420913A046C
:1038000030913B0440913C0450913D04C501B4010A
:103810000E94A7D020913E0430913F044091400483
:10382000509141040E947AD46B017C01C0922E0415
:10383000D0922F04E0923004F092310420913204AF
:10384000309133044091340450913504C501B401E2
:103850000E94A7D02091360430913704409138045B
:10386000509139040E947AD4A70196010E9479D41C
:1038700060932A0470932B0480932C0490932D045E
:10388000ACCEC12CD12C760113CF109244041092EF
:103890004504109246041092470421CFCF92DF9244
:1038A000EF92FF92CF93DF932091B60B222319F171
:1038B000EC01089600DA6B017C0120E030E0A90100
:1038C0000E9442D020E030E0A901882351F0CE01CF
:1038D000CEDD9B01AC01C701B6010E94A7D09B01C0
:1038E000AC01688579858A859B850E9479D4688733
:1038F00079878A879B87DF91CF91FF90EF90DF9048
:10390000CF9008958F929F92AF92BF92CF92DF9205
:10391000EF92FF920F93CF93DF931F92CDB7DEB755
:103920006C017B014901809171045B01A40EB51EFD
:103930008823A1F0F60180819181480F591F51839E
:1039400040830F90DF91CF910F91FF90EF90DF9028
:10395000CF90BF90AF909F908F900895F601808197
:1039600091810E94F7D389839091B50B992311F02F
:10397000002311F0F7018083BE016F5F7F4FC40108
:103980000E94AE98F6018081918101969183808397
:10399000FFEFEF1AFF0AEA14FB0401F7D2CF809180
:1039A000AD0A823039F0813041F08EE197E16FEF5E
:1039B0000C94C7AC8CE397E1FACF80E397E1F7CFA3
:1039C00080911A0A8630D8F496E0899FF00111247C
:1039D000EA50F64F2091490230914A023183208308
:1039E0004091640D5091650D6091660D7091670D69
:1039F00042835383648375838F5F80931A0A08958B
:103A00000F931F932091490230914A0228173907DA
:103A100059F10091F2091091F3092091F4093091C4
:103A2000F5090093280A1093290A20932A0A309353
:103A30002B0A90934A02809349024093640D50935D
:103A4000650D6093660D7093670D8A5B944321F456
:103A500010925E0A10921A0A0E94949C82E080934F
:103A6000560281E08093620D1F910F91089521E02D
:103A700020935E0A60933B0A70933C0A80933D0A50
:103A800090933E0A40E050E0BA0180913F0A909145
:103A9000400AB6CF60E070E080E291E4E8CF60E0F9
:103AA00070E080E89FE3E3CF6DEC7CEC8CEC9DE371
:103AB000DECF40E050E0BA018AEB94E3A1CFE09181
:103AC0001A0AEE2381F0E150E0931A0A86E0E89F9B
:103AD000F0011124EA50F64F4281538164817581CF
:103AE000808191818DCFE5CFEF92FF920F93CF939D
:103AF000DF93D82F7A01C22F80E00E94839CD111DE
:103B000001C0C0E28C2F0E945C9DC2E1F70164916C
:103B1000662359F0CC2389F089EB9DE00E94299D12
:103B2000C150FFEFEF1AFF0AF1CFC15030F060E251
:103B300089EB9DE00E94299DF8CF802FDF91CF91E6
:103B40000F91FF90EF900C945C9D9F92AF92BF926B
:103B5000CF92DF92EF92FF920F931F93CF93DF9359
:103B60000E94D598C091600DD0E0992493944AE9C1
:103B7000C42E43EAD42E53E5A52E56E6B52EC11128
:103B800032C08091630D8823B9F08091560288235A
:103B900059F081E09091630D911180E003E023E002
:103BA00044E45DE16D2FA0DFCF5FDF5FD43039F7F4
:103BB00085E08093610D0BC08091630A882329F30F
:103BC0001092630A7CDF8091620D8823F1F2DF910D
:103BD000CF911F910F91FF90EF90DF90CF90BF900A
:103BE000AF909F900895C13009F049C08091630D56
:103BF0008130B1F0809156028823B1F211E08091BA
:103C0000630D813009F010E088EC9AE00E94DAA29E
:103C10009C0140E35DE16D2F812F0E940CB2C4CF67
:103C20008091630A882331F31092630AC093680D70
:103C300010925F0A1092600A1092610A1092620A52
:103C4000E12C1CE3F12E0CE116E420E030E040EA28
:103C500050E468EC7AE08AE39DE10E94C4B3D0921C
:103C60004A02C0924902B0925B0DA0925A0D109286
:103C7000590D8091620D882309F4BCCFA8CFC230C2
:103C800009F0BAC08091630D823099F0809156029C
:103C9000882309F489CF11E08091630D823009F007
:103CA00010E08CEC9AE00E94DAA29C014CE15DE10C
:103CB000B2CF8091630A882349F31092630A9092ED
:103CC000680D10925F0A1092600A1092610A1092B9
:103CD000620AE12C1CE3F12E0CE116E420E030E056
:103CE00040EA50E46CEC7AE086E29DE10E94C4B3C5
:103CF000D0924A02C0924902B0925B0DA0925A0D36
:103D00001092590D8091620D882309F4BFCF5FCFC7
:103D10008091630D833099F080915602882309F4D5
:103D200043CF11E08091630D833009F010E080ED06
:103D30009AE00E94DAA29C0148E05DE16CCF80919C
:103D4000630A882349F31092630A9092680D1092D7
:103D50005F0A1092600A1092610A1092620AE12CC6
:103D60001CE3F12E0CE116E420E030E040EA50E4E0
:103D700060ED7AE082E19DE10E94C4B3D0924A02F4
:103D8000C0924902B0925B0DA0925A0D1092590D4B
:103D90008091620D882309F4BFCF19CF8091630A07
:103DA0008823A1F11092630A9092680D10925F0A25
:103DB0001092600A1092610A1092620AE12C1CE3D0
:103DC000F12E0CE116E420E030E040EA50E464ED2E
:103DD0007AE08EEF9CE10E94C4B3D0924A02C09276
:103DE0004902B0925B0DA0925A0D1092590D80912C
:103DF000620D882359F0EBCEC33009F489CFC4306B
:103E000009F0D2CE8091630D843041F28091560248
:103E1000882309F4C9CE11E08091630D843009F044
:103E200010E084ED9AE00E94DAA29C0144EF5CE18C
:103E3000F2CE2F923F924F925F926F927F928F922B
:103E40009F92AF92BF92CF92DF92EF92FF920F9329
:103E50001F93CF93DF930E94D5985090600D412C13
:103E6000332433944EED242ECDEADCE159EF652E58
:103E700054EA752E6DECA62E6CE1B62E7DED872EE4
:103E80007CE1972E51103AC08091630D8823C1F0D8
:103E900080915602882359F081E09091630D911131
:103EA00080E003E023E04DEE5CE1642D1DDE5394E1
:103EB000439494E04912E6CF85E08093610D0BC0F6
:103EC0008091630A882321F31092630AF8DD8091C0
:103ED000620D8823E9F2DF91CF911F910F91FF903E
:103EE000EF90DF90CF90BF90AF909F908F907F909A
:103EF0006F905F904F903F902F90089581E05812FF
:103F00004DC08091630D813011F18091560288235C
:103F100071F293E09F932F921F923F9283E29BE076
:103F20009F938F939F928F924F9281E09091630D18
:103F3000913009F080E08F930E9457B28DB79EB701
:103F40000A960FB6F8949EBF0FBE8DBFB0CF80917A
:103F5000630A8823D1F21092630A5092680D10927E
:103F60005F0A1092600A1092610A1092620AD12CC4
:103F7000C12CE12C10E8F12E07E714E420E030E03A
:103F800040E85FE363E27BE085EE9CE10E94899973
:103F90008091620D882309F4B8CF9DCF92E0591229
:103FA000BEC08091630D823019F180915602882342
:103FB00009F47DCF83E08F932F921F923F9287E287
:103FC0009BE09F938F93BF92AF924F9281E090912D
:103FD000630D923009F080E08F930E9457B28DB745
:103FE0009EB70A960FB6F8949EBF0FBE8DBF5FCFE7
:103FF0008091630A8823C9F21092630A3092680D97
:1040000010925F0A1092600A1092610A1092620A7E
:10401000D12CC12CE12C10E8F12E07E714E420E0AC
:1040200030E040E85FE367E27BE085ED9CE10E94E1
:1040300089998091620D882309F4B7CF4CCF809184
:10404000630D8330B9F080915602882309F42FCF95
:1040500011E08091630D833009F010E08BE29BE06A
:104060000E945AA49C014DEB5CE1642D812F0E94BB
:104070000CB21DCF8091630A882329F31092630A42
:104080003092680D10925F0A1092600A1092610AD5
:104090001092620AE12C10E8F12E07E714E42DECEF
:1040A0003CEC4CEC5DE36BE27BE085EC9CE10E9438
:1040B000C4B370924A026092490210925B0D109252
:1040C0005A0D1092590D8091620D882309F4BBCFCF
:1040D00002CF8091630A882369F11092630A3092BB
:1040E000680D10925F0A1092600A1092610A109295
:1040F000620AD12CC12CE12C10E8F12E07E714E460
:1041000020E030E040E85FE36FE27BE085EB9CE19C
:104110000E9489998091620D882361F0DCCE83E052
:10412000581609F48CCF94E05912C1CE8091630DDA
:10413000843079F280915602882309F4B8CE93E056
:104140009F932F921F923F928FE29BE09F938F93BA
:10415000DF93CF934F9281E09091630D943009F0FB
:1041600080E08F930E9457B28DB79EB70A960FB624
:10417000F8949EBF0FBE8DBF9ACE2F923F924F9262
:104180005F926F927F928F929F92AF92BF92CF92E7
:10419000DF92EF92FF920F931F93CF93DF9300D0A4
:1041A0001F92CDB7DEB70E94D5981091600DF12C0B
:1041B000EE24E3948DE7C82E8CE1D82E812C912C2F
:1041C000540183942DED422E23E0522E612C712C4C
:1041D00031E3232E37EA332E11113EC08091630D57
:1041E0008823C1F080915602882359F081E0909194
:1041F000630D911180E003E023E046EA5CE16F2D5E
:1042000073DC1F5FF394B4E0FB12E6CF88E0809389
:10421000610D0BC08091630A882321F31092630A19
:104220004EDC8091620D8823E9F20F900F900F9081
:104230000F90DF91CF911F910F91FF90EF90DF9042
:10424000CF90BF90AF909F908F907F906F905F9036
:104250004F903F902F900895113009F076C08091D3
:10426000630D8130B1F080915602882351F201E054
:104270008091630D813009F000E08FE19BE00E94A6
:10428000B9A59C014AE95CE16F2D802F0E940CB218
:10429000B8CF8091630A882331F31092630A109398
:1042A000680D10925F0A1092600A1092610A1092D3
:1042B000620A86DB83E080935602A0EABCE1B093F9
:1042C000580DA093570D8FE19BE09093560D80936E
:1042D000550D1092510D1092520D1092530D1092D7
:1042E000540D8EED93E0A0E0B0E080934D0D9093DF
:1042F0004E0DA0934F0DB093500D2AE037ED43E2E1
:104300005CE360911F0B7091200B8091210B9091C9
:10431000220B0E94A7D00E94C3D56093640D7093B6
:10432000650D8093660D9093670D30924A0220923E
:10433000490210925B0D10925A0D1092590D809106
:10434000620D882309F48FCF70CF123009F0D2C1EB
:104350008091630D823099F080915602882309F490
:1043600050CF01E08091630D823009F000E087E1D9
:104370009BE00E94B9A59C0146E85CE185CF809155
:10438000630A882349F31092630AE092680D109241
:104390005F0A1092600A1092610A1092620A10DBA2
:1043A00093E090935602A0E9BCE1B093580DA0931E
:1043B000570D87E19BE09093560D8093550D8092A9
:1043C000510D9092520DA092530DB092540D409207
:1043D0004D0D50924E0D60924F0D7092500D2AE08F
:1043E00037ED43E25CE36091170B7091180B8091FD
:1043F000190B90911A0B0E94A7D020E030E040E802
:104400005FE30E9479D40E94C3D56093640D7093DA
:10441000650D8093660D9093670D30924A0220924D
:10442000490210925B0D10925A0D1092590D809115
:10443000620D882309F490CFF8CE8091630D83300C
:1044400099F080915602882309F4DBCE01E0809137
:10445000630D833009F000E08BE19BE00E94B9A579
:104460009C0144E75CE110CF8091630A882349F303
:104470001092630AE092680D10925F0A1092600A2F
:104480001092610A1092620A9BDA10935602D0923F
:10449000580DC092570DABE1BBE0B093560DA09301
:1044A000550D8092510D9092520DA092530DB092E5
:1044B000540D40924D0D50924E0D60924F0D7092E2
:1044C000500D2AE037ED43E25CE360911B0B7091E5
:1044D0001C0B80911D0B90911E0B0E94A7D020E019
:1044E00030E040E85FE30E9479D40E94C3D5609336
:1044F000640D7093650D8093660D9093670D3092F7
:104500004A022092490210925B0D10925A0D1092AD
:10451000590D8091620D882309F493CF86CE809146
:10452000630D843009F180915602882309F469CE25
:1045300001E08091630D843009F000E06091F70A9A
:104540007091F80A8091F90A9091FA0A0E9446D077
:1045500069837A838B839C83CE0101960E94B9A5DF
:104560009C0146E65CE190CE8091630A8823D9F2F3
:104570001092630AE092680D10925F0A1092600A2E
:104580001092610A1092620A24E630E040E050E0A6
:1045900067EF7AE08DE69CE10E94529B8091620D6C
:1045A000882309F242CE8091630D853009F1809114
:1045B0005602882309F425CE01E08091630D8530F1
:1045C00009F000E06091FB0A7091FC0A8091FD0AFD
:1045D0009091FE0A0E9446D069837A838B839C83E4
:1045E000CE0101960E94B9A59C0148E55CE14CCE44
:1045F0008091630A8823D9F21092630AE092680DD1
:1046000010925F0A1092600A1092610A1092620A78
:1046100024E630E040E050E06BEF7AE08FE59CE18B
:104620000E94529B8091620D882309F2FECD8091F9
:10463000630D863009F180915602882309F4E1CD9B
:1046400001E08091630D863009F000E06091FF0A7F
:104650007091000B8091010B9091020B0E9446D04B
:1046600069837A838B839C83CE0101960E94B9A5CE
:104670009C014AE45CE108CE8091630A8823D9F268
:104680001092630AE092680D10925F0A1092600A1D
:104690001092610A1092620A2AE030E040E050E095
:1046A0006FEF7AE081E59CE10E94529B8091620D60
:1046B000882309F2BACD8091630A882371F11092A0
:1046C000630AE092680D10925F0A1092600A1092DD
:1046D000610A1092620A24E630E040E050E063E0B4
:1046E0007BE083E49CE10E94529B8091620D8823D1
:1046F000A1F09BCD133009F4A0CE143009F40FCFF4
:10470000153009F450CF163009F491CF173009F065
:1047100078CD8091630D873071F2809156028823A5
:1047200009F46FCD01E08091630D873009F000E05E
:104730006091030B7091040B8091050B9091060B17
:104740000E9446D069837A838B839C83CE01019635
:104750000E94B9A59C014CE35CE196CD3F924F923B
:104760005F926F927F928F929F92AF92BF92CF9201
:10477000DF92EF92FF920F931F93CF93DF930E94EC
:10478000D598C091600DD0E05524539463E0462E37
:1047900077EE372EEBE0AE2EECE1BE2EF9E18F2E58
:1047A000FCE19F2EA7E26A2EACE17A2EC11138C03F
:1047B0008091630D8823B9F080915602882359F0C7
:1047C00081E09091630D911180E003E023E045E3E7
:1047D0005CE16D2F89D9CF5FDF5FD43039F787E097
:1047E0008093610D0BC08091630A882329F3109296
:1047F000630A65D98091620D8823F1F2DF91CF9130
:104800001F910F91FF90EF90DF90CF90BF90AF90EE
:104810009F908F907F906F905F904F903F90089502
:10482000C13009F04CC08091630D813009F1809155
:104830005602882381F24F923F921F925F9287E047
:104840009BE09F938F937F926F92DF9381E0909193
:10485000630D913009F080E08F930E9457B28DB7BD
:104860009EB70A960FB6F8949EBF0FBE8DBFB3CF0A
:104870008091630A8823D9F21092630AC093680D6D
:1048800010925F0A1092600A1092610A1092620AF6
:10489000D12CC12CE12C10ECF12E09E714E420E01E
:1048A00030E040E85FE367E07BE08EE29CE10E945D
:1048B00089998091620D882309F4B9CF9FCFC230C6
:1048C00009F05CC18091630D823011F18091560234
:1048D000882309F480CF4F923F921F925F928BE022
:1048E0009BE09F938F939F928F92DF9381E09091B3
:1048F000630D923009F080E08F930E9457B28DB71C
:104900009EB70A960FB6F8949EBF0FBE8DBF63CFB9
:104910008091630A8823D1F21092630A5092680D45
:1049200010925F0A1092600A1092610A1092620A55
:10493000D12CC12CE12C10ECF12E09E714E420E07D
:1049400030E040E85FE36BE07BE080E29CE10E94C6
:1049500089998091620D882309F4B8CF4FCF809157
:10496000630D833011F180915602882309F433CF0F
:104970004F923F921F925F928FE09BE09F938F93A5
:10498000BF92AF92DF9381E09091630D933009F075
:1049900080E08F930E9457B28DB79EB70A960FB6EC
:1049A000F8949EBF0FBE8DBF16CF8091630A8823F7
:1049B000D1F21092630A5092680D10925F0A109221
:1049C000600A1092610A1092620AD12CC12CE12C6B
:1049D00010ECF12E09E714E420E030E040E85FE35A
:1049E0006FE07BE082E19CE10E9489998091620DF9
:1049F000882309F4B8CF02CF8091630D843021F170
:104A000080915602882309F4E6CE4F923F921F927E
:104A10005F9283E19BE09F938F938DEF9BE19F9348
:104A20008F93DF9381E09091630D943009F080E0E3
:104A30008F930E9457B28DB79EB70A960FB6F8941F
:104A40009EBF0FBE8DBFC7CE8091630A8823C1F27F
:104A50001092630A5092680D10925F0A1092600AD9
:104A60001092610A1092620AD12CC12CE12C10EC38
:104A7000F12E09E714E420E030E040E85FE363E171
:104A80007BE084E09CE10E9489998091620D8823FB
:104A900009F4B6CFB3CE8091630D853021F18091BA
:104AA0005602882309F497CE4F923F921F921F928D
:104AB00087E39BE09F938F9383EF9BE19F938F937B
:104AC000DF9381E09091630D953009F080E08F9342
:104AD0000E9457B28DB79EB70A960FB6F8949EBF44
:104AE0000FBE8DBF78CE8091630A8823C1F21092E9
:104AF000630A5092680D10925F0A1092600A109239
:104B0000610A1092620AD12CC12CE12C10ECF12E1A
:104B100009E714E420E030E0A90167E37BE088EFD7
:104B20009BE10E9489998091620D882309F4B7CF97
:104B300065CE8091630A882389F11092630A5092AE
:104B4000680D10925F0A1092600A1092610A10922A
:104B5000620AD12CC12CE12C10ECF12E09E714E4EF
:104B600020E030E0A90163E37BE089EE9BE10E9455
:104B700089998091620D882389F040CEC33009F471
:104B8000EECEC43009F438CFC53009F484CFC63036
:104B900009F021CE8091630D863059F28091560242
:104BA000882309F418CE4F923F921F921F9283E3FD
:104BB0009BE09F938F938FED9BE19F938F93DF9368
:104BC00081E09091630D963009F080E08F930E9410
:104BD00057B28DB79EB70A960FB6F8949EBF0FBE18
:104BE0008DBFF9CD2F923F924F925F926F927F923D
:104BF0008F929F92AF92BF92CF92DF92EF92FF92ED
:104C00000F931F93CF93DF930E94D598C091600DAF
:104C1000D0E03324339469EF462E64EA562E73E4D1
:104C2000272EE8E6AE2EEBE1BE2EFCE78F2EFBE151
:104C30009F2EA4E86A2EABE17A2EC11188C0809124
:104C4000630D882309F462C080915602882361F0C5
:104C500081E09091630D911180E003E023E042E94F
:104C60005BE16D2F0E94741D2CEA35EC47E25EE398
:104C70006091510A7091520A8091530A9091540A9E
:104C80000E9456D560934D0A70934E0A80934F0A46
:104C90009093500A2CEA35EC47E25EE36091490AB2
:104CA00070914A0A80914B0A90914C0A0E94A7D0B9
:104CB0006093450A7093460A8093470A9093480A86
:104CC000C83009F07AC28091630D883009F44FC270
:104CD00080915602882389F011E08091630D88301D
:104CE00009F010E081E49AE00E945AA49C014FE18F
:104CF0005BE16D2F812F0E940CB2CF5FDF5FD4305C
:104D000009F09BCF8DE08093610D0EC08091630A06
:104D1000882309F499CF1092630A0E945F1D809145
:104D2000620D882309F490CFDF91CF911F910F91ED
:104D3000FF90EF90DF90CF90BF90AF909F908F90BB
:104D40007F906F905F904F903F902F900895C1306B
:104D500009F04DC08091630D813039F18091560288
:104D6000882309F481CF86EA92E19F938F933F9243
:104D700084E08F931F921F9284E69AE09F938F9313
:104D80007F926F92DF9381E09091630D913009F0F3
:104D900080E08F930E9445B28DB79EB70C960FB6F8
:104DA000F8949EBF0FBE8DBF5FCF8091630A8823AA
:104DB000A9F21092630AC093680D10925F0A1092D4
:104DC000600A1092610A1092620A06EA12E124E077
:104DD00031E050E040E064E67AE08BE89BE10E943D
:104DE00028998091620D882309F4B8CF9DCFC230F5
:104DF00009F099C28091630D823039F18091560299
:104E0000882309F431CF85EA92E19F938F931F9213
:104E100087E88F931F921F928CE59DE09F938F935D
:104E20009F928F92DF9381E09091630D923009F011
:104E300080E08F930E9445B28DB79EB70C960FB657
:104E4000F8949EBF0FBE8DBF0FCF8091630A882359
:104E5000A9F21092630A3092680D10925F0A1092C4
:104E6000600A1092610A1092620A05EA12E127E8CC
:104E700030E050E040E06CE57DE080E89BE10E949E
:104E800028998091620D882309F4B8CF4DCF809185
:104E9000630D833019F180915602882309F4E4CE22
:104EA0001F928FEF8F931F921F928EE59DE09F932D
:104EB0008F93BF92AF92DF9381E09091630D933017
:104EC00009F080E08F930E9445B28DB79EB70A9695
:104ED0000FB6F8949EBF0FBE8DBFC6CE8091630AF9
:104EE0008823C9F21092630A3092680D10925F0A0B
:104EF0001092600A1092610A1092620A10E000E0BB
:104F00002FEF30E050E040E06EE57DE082E79BE18E
:104F10000E9428998091620D882309F4BCCF04CFA8
:104F20009091630D9430B9F080915602882309F472
:104F30009BCE8091550A2BE53BE1811102C027E50C
:104F40003BE181E0943009F080E04FE55BE16D2FBB
:104F50000E94C5B189CE8091630A882329F31092FB
:104F6000630A8091550A83258093550A83E08093D4
:104F700056028091620D8823B9F2D6CE8091630DDE
:104F8000853009F46CC080915602882309F12F9274
:104F900082E88F931F921F921F921F9282E392E0EA
:104FA0009F938F9389E49BE19F938F93DF9381E09D
:104FB0009091630D953009F080E08F930E9457B275
:104FC0008DB79EB70C960FB6F8949EBF0FBE8DBFDF
:104FD0002CEA35EC47E25EE36091510A7091520A87
:104FE0008091530A9091540A0E9456D560934D0ABD
:104FF00070934E0A80934F0A9093500A2CEA35EC36
:1050000047E25EE36091490A70914A0A80914B0A37
:1050100090914C0A0E94A7D06093450A7093460A6B
:105020008093470A9093480ACB3009F445C1CC30AD
:1050300009F063CE8091630D8C3009F463C18091D7
:105040005602882309F459CE81E09091630D9C307B
:1050500009F080E00EE32EE345EE5AE140C1809175
:10506000630A882309F48FCF1092630AD12CC12CD4
:10507000E12CF12C02E813E420E030E0A90162E326
:1050800072E080E59BE10E9489998091620D8823FE
:1050900009F479CF49CE8091630D863039F1809142
:1050A0005602882309F494CF2F9282E88F931F929F
:1050B0001F921F921F928EE292E09F938F938BE339
:1050C0009BE19F938F93DF9381E09091630D9630E6
:1050D00009F080E08F930E9457B28DB79EB70C966F
:1050E0000FB6F8949EBF0FBE8DBFBECD8091630AF0
:1050F0008823A9F21092630AD12CC12CE12CF12C47
:1051000002E813E420E030E0A9016EE272E082E4FC
:105110009BE10E9489998091620D882309F4BFCF99
:1051200003CE8091630A882309F411C11092630AA7
:10513000E12CF12C00E211E420E030E0A9016AE268
:1051400072E083E39BE10E94C4B384E099EA909308
:105150004A028093490210925B0D10925A0D1092F0
:10516000590D8091620D882309F4F1C0DDCD809145
:10517000630A882309F4ACCD1092630AE12C18E18C
:10518000F12E0CE116E420E030E040E85FE361E45A
:105190007AE085E29BE10E94C4B350924A024092B9
:1051A000490210925B0D10925A0D1092590D809188
:1051B000620D882309F48CCDB7CDC930E9F5809113
:1051C000630D893099F080915602882309F495CDBA
:1051D00011E08091630D893009F010E08DE49AE0D0
:1051E0000E945AA49C0143E15BE183CD8091630A54
:1051F000882349F31092630AE12C18E1F12E0CE1A7
:1052000016E42AE037ED43E25CE36DE47AE089E1FD
:105210009BE10E94C4B350924A02409249028BE63D
:1052200092E190935B0D80935A0D1092590D8091ED
:10523000620D882341F278CDCA3009F0F5CE809115
:10524000630D8A3099F080915602882309F455CD78
:1052500011E08091630D8A3009F010E085E49AE056
:105260000E945AA49C0147E05BE143CD8091630A10
:10527000882349F31092630AE12C18E1F12E0CE126
:1052800016E420E030E040E85FE365E47AE08DE09A
:105290009BE10E94C4B350924A024092490284E5C5
:1052A00092E190935B0D80935A0D1092590D80916D
:1052B000620D882341F238CD8091630D8B3099F0D7
:1052C00080915602882309F418CD81E09091630DF6
:1052D0009B3009F080E00EE32EE346EF5AE16D2F9C
:1052E0000E94741D0ACD8091630A882349F31092AD
:1052F000630A82E792E50E94B7B38091620D88232A
:10530000F9F212CD8091630A882309F498CE1092A5
:10531000630A80E792E50E94B7B38091620D88230B
:1053200009F48DCE01CDC33009F4B1CDC43009F4F8
:10533000F7CDC53009F422CEC63009F4ACCEC73063
:1053400009F092CC8091630D873009F4EACE809108
:105350005602882309F43CCE11E08091630D87301A
:1053600009F010E08AE292E00E9467A89C014BE2FB
:105370005BE16D2F812F0E940CB276CC0F93CF93FF
:10538000DF930E94D598D091600DC0E0D1112CC060
:105390008091630D8823C1F080915602882361F0CB
:1053A00081E09091630D911180E003E023E04AE5F4
:1053B0005AE16C2F0E94741DDF5FCF5FC43031F75C
:1053C00085E08093610D0CC08091630A882321F3EE
:1053D0001092630A0E945F1D8091620D8823E1F2A2
:1053E000DF91CF910F910895D13011F58091630D28
:1053F000813079F0809156028823F1F281E090911A
:10540000630D913009F080E00EE32EE343E55AE1AD
:10541000D0CF8091630A882369F31092630A8FEDDD
:105420009BE20E94B7B38091620D882319F3D8CF15
:10543000D23009F055C08091630D823081F08091A7
:105440005602882309F4B8CF81E09091630D923021
:1054500009F080E00EE32EE34CE45AE1AACF8091FC
:10546000630A882361F31092630A83EE9BE20E9431
:10547000B7B38091620D882311F3B2CF8091630D91
:10548000833081F080915602882309F495CF81E022
:105490009091630D933009F080E00EE32EE345E434
:1054A0005AE187CF8091630A882361F31092630ADF
:1054B00087EE9BE20E94B7B38091620D882311F3BF
:1054C0008FCF8091630A8823A1F01092630A8BEE3C
:1054D0009BE20E94B7B38091620D882351F080CF88
:1054E000D33061F2D43009F067CF8091630D8430FE
:1054F00041F380915602882309F45ECF81E09091B8
:10550000630D943009F080E00EE32EE34CE35AE1A2
:1055100050CF0F931F93CF93DF93182F7093400AB0
:1055200060933F0A0E94D598D091600DC0E081E061
:10553000113009F459C048F1123009F47EC0D1117C
:10554000A3C08823D9F08091630D1816BCF0409158
:10555000640D5091650D6091660D7091670D4F5F00
:105560005F4F6F4F7F4F4093640D5093650D609375
:10557000660D7093670D8F5F8093630D8091560267
:10558000882341F16EE17AE154C0D1117DC08823B6
:10559000D9F08091630D1816BCF04091640D5091C4
:1055A000650D6091660D7091670D4F5F5F4F6F4F96
:1055B0007F4F4093640D5093650D6093660D70931B
:1055C000670D8F5F8093630D8091560265E37AE1EA
:1055D00081112FC0DF5F80E0CF5FC43009F0A8CF1A
:1055E00085E08093610D75C0D1114EC08823D9F03C
:1055F0008091630D1816BCF04091640D5091650DBB
:105600006091660D7091670D4F5F5F4F6F4F7F4FD9
:105610004093640D5093650D6093660D7093670D14
:105620008F5F8093630D809156026EE27AE188234A
:1056300089F28C2F0E9485B1CDCFD11125C088234E
:10564000D9F08091630D1816BCF04091640D509113
:10565000650D6091660D7091670D4F5F5F4F6F4FE5
:105660007F4F4093640D5093650D6093660D70936A
:10567000670D8F5F8093630D8091560267E27AE138
:10568000882309F4A7CFD5CFD13041F58091630DA0
:10569000813099F080915602882309F49BCF81E0F4
:1056A0009091630D913009F080E003E023E044E144
:1056B0005AE16C2F0E94741D8DCF8091630A88235C
:1056C00049F31092630A0E945F1D8091620D882346
:1056D00009F3DF91CF911F910F910895D23009F016
:1056E00055C08091630D823081F0809156028823ED
:1056F00009F470CF81E09091630D923009F080E061
:105700000EE32EE34AE05AE1D4CF8091630A882366
:1057100061F31092630A8AE49DE10E94B7B380911D
:10572000620D882311F3D5CF8091630D833081F012
:1057300080915602882309F44DCF81E09091630D4A
:10574000933009F080E00EE32EE341E05AE1B1CF5F
:105750008091630A882361F31092630A8FE49DE1CC
:105760000E94B7B38091620D882311F3B2CF80916C
:10577000630A8823A1F01092630A84E59DE10E94E8
:10578000B7B38091620D882351F0A3CFD33061F27B
:10579000D43009F01FCF8091630D843041F38091A4
:1057A0005602882309F416CF81E09091630D94305E
:1057B00009F080E00EE32EE346EF59E17ACF6EE286
:1057C00072E380E0A6CE6AE272E381E0A2CE66E2F6
:1057D00072E382E09ECE60EA70E383E09ACE0F939C
:1057E000CF93DF930E94D598D091600DC0E0D11186
:1057F0002BC08091630D8823B9F0809156028823D5
:1058000061F081E09091630D911180E003E023E06D
:1058100045E358E16C2F0E94741DDF5FCF5FC430F9
:1058200031F7C093610D0CC08091630A882329F37E
:105830001092630A0E945F1D8091620D8823E9F235
:10584000DF91CF910F910895D13061F58091630D73
:10585000813079F0809156028823F9F281E09091AD
:10586000630D913009F080E000E22EE349E258E157
:10587000D1CF8091630A882369F31092630A409123
:10588000EA0A5091EB0A6091E60A7091E70A80916A
:10589000EE0A9091EF0A0E9433AC8091620D88234A
:1058A000C9F2CECFD23009F042C08091630D823070
:1058B00081F080915602882309F4AFCF81E0909166
:1058C000630D923009F080E000E22EE349E058E1F8
:1058D000A1CF8091630A882361F31092630A4091FB
:1058E000EA0A5091EB0A6FEF7FEF8091EE0A9091F8
:1058F000EF0A0E9433AC8091620D8823D1F2A0CFD1
:105900008091630A8823D1F01092630A4091EA0AD9
:105910005091EB0A6091E60A7091E70A90E080E00E
:105920000E9433AC8091620D882341F089CFD3303F
:1059300009F073CF8091630D833011F3809156028B
:10594000882309F46ACF81E09091630D933009F0C8
:1059500080E000E22EE349E158E15CCF0F93CF9362
:10596000DF930E94D598D091600DC0E0D1112BC07B
:105970008091630D8823B9F080915602882361F0ED
:1059800081E09091630D911180E003E023E049E60E
:1059900058E16C2F0E94741DDF5FCF5FC43031F778
:1059A000C093610D0CC08091630A882329F3109283
:1059B000630A0E945F1D8091620D8823E9F2DF91E6
:1059C000CF910F910895D13061F58091630D8130B1
:1059D00079F0809156028823F9F281E09091630D6D
:1059E000913009F080E000E22EE34DE558E1D1CF9F
:1059F0008091630A882369F31092630A4091EC0A4C
:105A00005091ED0A6091E80A7091E90A8091F00ADC
:105A10009091F10A0E9433AC8091620D8823C9F203
:105A2000CECFD23009F042C08091630D823081F038
:105A300080915602882309F4AFCF81E09091630DE5
:105A4000923009F080E000E22EE34DE358E1A1CF6F
:105A50008091630A882361F31092630A4091EC0AF3
:105A60005091ED0A6FEF7FEF8091F00A9091F10A6B
:105A70000E9433AC8091620D8823D1F2A0CF809137
:105A8000630A8823D1F01092630A4091EC0A509186
:105A9000ED0A6091E80A7091E90A90E080E00E94C6
:105AA00033AC8091620D882341F089CFD33009F067
:105AB00073CF8091630D833011F380915602882358
:105AC00009F46ACF81E09091630D933009F080E092
:105AD00000E22EE34DE458E15CCF2F923F924F92CB
