:100000000C94AD0F0C94DE0F0C94DE0F0C94DE0FED
:100010000C94DE0F0C94DE0F0C94DE0F0C94DE0FAC
:100020000C94DE0F0C94DE0F0C94DE0F0C94DE0F9C
:100030000C94DE0F0C94DE0F0C94DE0F0C94DE0F8C
:100040000C94DE0F0C94D6860C94DE0F0C94DE0F0D
:100050000C94DE0F0C94DE0F0C94F87F0C94747EDD
:100060000C94DE0F0C949F870C94DE0F0C94DE0F23
:100070000C94DE0F0C94DE0F0C94DE0F0C94DE0F4C
:100080000C9471870C94DE0F0C94DE0F0C94DE0F31
:100090000C94DE0F0C94DE0F0C94DE0F0C94DE0F2C
:1000A0000C94DE0F0C94DE0F0C9443870C94DE0F3F
:1000B0000C94DE0F0C94DE0F0C94DE0F0C9415875D
:1000C0000C94DE0F0C94DE0F0C94DE0F0C94DE0FFC
:1000D0000C94DE0F0C94DE0F0C94DE0F0C94DE0FEC
:1000E0000C94DE0F084AD73B3BCE016E84BCBFFDAB
:1000F000C12F3D6C74319ABD56833DDA3D00C77FF8
:1001000011BED9E4BB4C3E916BAAAABE0000008090
:100110003F05A84CCDB2D44EB93836A9020C50B91F
:10012000918688083CA6AAAA2ABE000000803F004B
:100130004E414E494E495459494E46CDCCCC3D0ACC
:10014000D7233C17B7D13877CC2B329595E6241FAF
:10015000B14F0A000020410000C84200401C462068
:10016000BCBE4CCA1B0E5AAEC59D74434F4D4D5577
:100170004E49434154494F4E0044525952554E0046
:100180004552524F525300494E464F004543484F47
:1001900000656E7175657565696E672022004B4953
:1001A0004C4C45442E200053544F505045442E2073
:1001B000005072696E7465722073746F707065643C
:1001C0002064756520746F206572726F72732E20C3
:1001D00046697820746865206572726F7220616E5E
:1001E0006420757365204D39393920746F2072652C
:1001F00073746172742E202854656D706572617419
:100200007572652069732072657365742E2053655D
:1002100074206974206166746572207265737461FC
:100220007274696E67290A004E6F20436865636BBC
:1002300073756D2077697468206C696E65206E75C2
:100240006D6265722C204C617374204C696E653A46
:100250002000636865636B73756D206D69736D61F4
:100260007463682C204C617374204C696E653A206D
:10027000004C696E65204E756D6265722069732051
:100280006E6F74204C617374204C696E65204E75DE
:100290006D6265722B312C204C617374204C696E39
:1002A000653A20004D3131300020496E76616C692D
:1002B000642065787472756465722000000040C126
:1002C000000050C100000000000048430000484307
:1002D00000004843486F6D696E67206661696C6510
:1002E00064002C20002C200050726F7465637465CC
:1002F000642050696E0A0020573A004520436F6F12
:100300006C696E672E2E2E00452048656174696EFB
:10031000672E2E2E0020573A0042656420636F6FCF
:100320006C696E672E2E2E004265642068656174CC
:10033000696E672E2E2E00205A3A0020593A00206E
:10034000436F756E7420583A0020453A00205A3A9F
:100350000020593A00583A003A004361703A00527E
:100360006573656E643A200020746F6F206C6F6E49
:100370006720657874727573696F6E207072657628
:10038000656E7465640A0020636F6C642065787420
:10039000727573696F6E2070726576656E746564D0
:1003A0000A00627573793A2070617573656420661E
:1003B0006F7220696E7075740A00627573793A20E5
:1003C00070617573656420666F7220757365720A5B
:1003D00000627573793A2070726F63657373696E2A
:1003E000670A004B494C4C45442E20004B494C4C6D
:1003F00020636175736564206279204B494C4C2001
:10040000627574746F6E2F70696E0A004B494C4CA4
:1004100045442E20004B494C4C2063617573656444
:1004200020627920746F6F206D75636820696E613A
:1004300063746976652074696D65202D206375721B
:1004400072656E7420636F6D6D616E643A2000504A
:100450006C65617365207265736574005052494E16
:100460005445522048414C544544005072696E74C2
:1004700065722068616C7465642E206B696C6C28F1
:10048000292063616C6C6564210A00000000000192
:100490000204040000001C1C0C04040402010000FF
:1004A00000000004081000000000002D2D2D2D2D4F
:1004B0002D007C4D61726C696E7C002D2D2D2D2DD3
:1004C0002D00687474703A2F2F6D61726C696E66BE
:1004D000772E6F726700687474703A2F2F6D617297
:1004E0006C696E66772E6F72670020312E312E395F
:1004F0002E31002020506C616E6E6572427566660A
:10050000657242797465733A2000204672656520F1
:100510004D656D6F72793A2000436F6D70696C653F
:10052000643A2053657020323220323032300A0073
:10053000207C20417574686F723A204A2E204C61ED
:10054000726F6F0A00323032302D30362D3230006B
:10055000204C61737420557064617465643A2000A6
:10056000312E312E392E310A004D61726C696E00C8
:1005700020536F6674776172652052657365740AE3
:1005800000205761746368646F67205265736574F7
:100590000A002042726F776E206F75742052657367
:1005A00065740A002045787465726E616C2052652E
:1005B0007365740A00506F77657255700A00737422
:1005C0006172740A005761726E696E673A20486FF3
:1005D0006D696E672042756D702044697669736F2E
:1005E00072203C20310A000202040000A0400000FA
:1005F000A0400000004000005443000055430000AC
:1006000048436F6B0048617264636F6465642044A3
:10061000656661756C742053657474696E677320C8
:100620004C6F616465640A002823000028230000E1
:1006300064000000102700000000C8430000C84309
:100640000000A0400000C8416666C84266E6C84295
:100650000000C84385EBBD4220286D6D2900204471
:100660000020490020204D333031205000504944B3
:100670002073657474696E67733A0A00204600201F
:10068000420020480020204D3134352053004D6178
:1006900074657269616C2068656174757020706141
:1006A00072616D65746572733A0A00205A002059B0
:1006B0000020204D323036205800486F6D65206F85
:1006C00066667365743A0A00204500205A00205976
:1006D0000020580020540020530020204D32303597
:1006E00020510020453C6D61785F655F6A65726BE3
:1006F0003E0020583C6D61785F785F6A65726B3EA2
:1007000020593C6D61785F795F6A65726B3E205A53
:100710003C6D61785F7A5F6A65726B3E004164761A
:10072000616E6365643A20513C6D696E5F73656705
:100730006D656E745F74696D655F75733E20533CC3
:100740006D696E5F66656564726174653E20543CD8
:100750006D696E5F74726176656C5F666565647203
:100760006174653E0020540020520020204D32303C
:1007700034205000416363656C65726174696F6E0B
:100780002028756E6974732F7332293A20503C709B
:1007900072696E745F616363656C3E20523C726582
:1007A00074726163745F616363656C3E20543C7472
:1007B000726176656C5F616363656C3E0A0020451B
:1007C00000205A0020590020204D3230312058009E
:1007D0004D6178696D756D20416363656C6572610B
:1007E00074696F6E2028756E6974732F7332293A9D
:1007F0000A00204500205A0020590020204D3230A8
:10080000332058004D6178696D756D2066656564AB
:1008100072617465732028756E6974732F73293A39
:100820000A00204500205A0020590020204D39326E
:1008300020580053746570732070657220756E695E
:10084000743A0A0020204D3230302044300A002013
:10085000204D3230302044002044697361626C6561
:10086000640A0046696C616D656E7420736574740A
:10087000696E67733A0020204D3134392043203BA4
:1008800020556E69747320696E2043656C736975B9
:10089000730A002020473231202020203B00545290
:1008A00049474745524544006F70656E003A200045
:1008B0007A5F6D696E00795F6D696E00785F6D6952
:1008C0006E005265706F7274696E6720656E647336
:1008D000746F70207374617475730A0024F4D430DB
:1008E00050C38E20C2A24017828B7011127A910DD4
:1008F000816CD90AA861E108C758660761514306AF
:100900001E4B5D05C145A7041A411104093D98031A
:10091000713931034036DB0265339102D430540221
:10092000802E1D02632CEE01752AC501B028A0019E
:10093000102781018F2564012B244B01E022340113
:10094000AC211F018D200D01801FFC00841EED00D5
:10095000971DDF00B81CD200E61BC600201BBC00A0
:10096000641AB200B219A8000A19A0006A18990006
:10097000D117910040178B00B516840031167E0008
:10098000B31579003A157300C7146F0058146A0044
:10099000EE1366008813630025135E00C7125B0028
:1009A0006C12570015125400C111510070114F0004
:1009B00021114B00D61049008D104700461044000D
:1009C00002104200C00F4000800F3E00420F3C006A
:1009D000060F3B00CB0E3800930E37005C0E35003F
:1009E000270E3400F30D3200C10D3100900D3000A0
:1009F000600D2E00320D2D00050D2C00D90C2B00A2
:100A0000AE0C2900850C29005C0C2700350C270052
:100A10000E0C2600E80B2400C40B2400A00B2300BE
:100A20007D0B23005A0B2100390B2100180B2000ED
:100A3000F80A1F00D90A1E00BB0A1E009D0A1D00ED
:100A4000800A1D00630A1C00470A1B002C0A1B00B9
:100A5000110A1A00F7091A00DD091900C409190062
:100A6000AB091900920917007B09180063091700E8
:100A70004C09160036091600200916000A0915004F
:100A8000F5081500E0081400CC081400B80814009C
:100A9000A4081400900813007D0812006B081300CE
:100AA00058081200460812003408110023081100EB
:100AB0001208110001081100F0071000E0071000F3
:100AC000D0071000C0071000B0070F00A1071000EA
:100AD00091070E0083070F0074070F0065070E00D3
:100AE00057070E0049070E003B070D002E070E00AA
:100AF00020070D0013070D0006070D00F9060C0076
:100B0000ED060D00E0060C00D4060C00C8060C0033
:100B1000BC060C00B0060C00A4060B0099060C00E5
:100B20008D060B0082060B0077060B006C060B008F
:100B300061060A0057060B004C060A0042060A002E
:100B400038060A002E060A0024060A001A060A00C1
:100B50001006090007060A00FD050900F405090052
:100B6000EB050900E2050900D9050900D0050900D7
:100B7000C7050900BE050900B5050800AD05080058
:100B8000A50509009C050800940508008C050800CF
:100B9000840508007C050800740508006C05070042
:100BA000650508005D050700560508004E050700AD
:100BB0004705070040050800380507003105070014
:100BC0002A050700230507001C0506001605070077
:100BD0000F0507000805060002050700FB040600D4
:100BE000F5040700EE040600E8040600E20407002E
:100BF000DB040600D5040600CF040600C904060085
:100C0000C3040600BD040600B7040600B1040500D5
:100C1000AC040600A6040600A00405009B04060020
:100C200095040500900406008A040500850405006B
:100C3000800406007A0405007504050070040500B0
:100C40006B04050066040500610405005C040500F2
:100C500057040500520405004D0405004804050032
:100C6000430405003E0404003A0405003504050071
:100C7000300404002C0405002704040023040500AC
:100C80001E0404001A0404001604050011040400E4
:100C90000D04040009040500040404000004040019
:100CA000FC030400F8030400F4030400F003040050
:100CB000EC030400E8030400E4030400E003040080
:100CC000DC030400D8030400D4030400D0030400B0
:100CD000CC030400C8030300C503030024F404D9B3
:100CE000201BC40C5C0E9804C4095F0265077101E7
:100CF000F405F900FB04B30048048700C103690050
:100D00005803550003034500BE023A008402310037
:100D100053022A002902250004022000E4011C00DD
:100D2000C8011900AF0117009801140084011300D5
:100D3000710110006101100051010E0043010D000E
:100D400036010B002B010B0020010B0015010900DF
:100D50000C01090003010800FB000800F300080073
:100D6000EB000700E4000600DE000600D8000600E5
:100D7000D2000600CC000500C7000500C200050037
:100D8000BD000400B9000400B5000400B100040077
:100D9000AD000400A9000400A5000300A2000300A8
:100DA0009F0004009B0003009800030095000200D0
:100DB00093000300900003008D0002008B000300ED
:100DC0008800020086000200840003008100020007
:100DD0007F0002007D0002007B000200790002001B
:100DE000770001007600020074000200720001002A
:100DF000710002006F0002006D0001006C00020033
:100E00006A0001006900020067000100660001003D
:100E10006500010064000200620001006100010041
:100E2000600001005F0002005D0001005C00010045
:100E30005B0001005A000100590001005800010048
:100E40005700010056000100550001005400010048
:100E50005300000053000100520001005100010046
:100E6000500001004F0001004E0000004E00010044
:100E70004D0001004C0001004B0000004B00010040
:100E80004A0001004900010048000000480001003C
:100E90004700010046000000460001004500000038
:100EA0004500010044000100430000004300010030
:100EB000420000004200010041000000410001002A
:100EC000400001003F0000003F0001003E00000024
:100ED0003E0001003D0000003D0001003C0000001C
:100EE0003C0000003C0001003B0000003B00010012
:100EF0003A0000003A00010039000000390001000A
:100F00003800000038000000380001003700000001
:100F100037000100360000003600000036000100F6
:100F200035000000350000003500010034000000ED
:100F300034000000340001003300000033000000E2
:100F400033000100320000003200000032000100D6
:100F500031000000310000003100010030000000CD
:100F600030000000300001002F0000002F000000C2
:100F70002F0000002F0001002E0000002E000000B6
:100F80002E0001002D0000002D0000002D000000AB
:100F90002D0001002C0000002C0000002C0000009F
:100FA0002C0001002B0000002B0000002B00000093
:100FB0002B0001002A0000002A0000002A00000087
:100FC0002A0001002900000029000000290000007B
:100FD000290000002900010028000000280000006E
:100FE0002800000028000000280001002700000061
:100FF0002700000027000000270000002700010054
:101000002600000026000000260000002600000048
:10101000260001002500000025000000250000003A
:10102000250000002500000025000100240000002C
:10103000240000002400000024000000240001001F
:101040002300000023000000230000002300000014
:101050002300000023000000230001002200000004
:1010600022000000220000002200000022000000F8
:1010700022000100210000002100000021000000EA
:1010800021000000210000002100000021000100DB
:1010900020000000200000002000000020000000D0
:1010A00020000000200000002000000020000100BF
:1010B0001F0000001F0000001F0000001F000000B4
:1010C0001F0000001F0000001F0001001E000000A4
:1010D0001E0000001E0000001E000000043700007B
:1010E0001E290000511B00005810000010090000CC
:1010F000CC04000078020000410100002364656612
:10110000696E652044454641554C545F4B64200050
:1011100023646566696E652044454641554C545FBD
:101120004B69200023646566696E6520444546412D
:10113000554C545F4B702000504944204175746FEA
:1011400074756E652066696E6973686564212050E8
:10115000757420746865206C617374204B702C204A
:101160004B6920616E64204B6420636F6E73746101
:101170006E74732066726F6D2062656C6F77206984
:101180006E746F20436F6E66696775726174696F04
:101190006E2E680A00504944204175746F74756E54
:1011A00065206661696C6564212074696D656F7581
:1011B000740A00504944204175746F74756E65203F
:1011C0006661696C6564212054656D706572617437
:1011D00075726520746F6F20686967680A00204B1C
:1011E000643A2000204B693A2000204B703A2000DE
:1011F0000A20436C617373696320504944200A00DC
:101200002054753A2000204B753A2000206D6178FB
:101210003A2000206D696E3A200020643A200020B8
:10122000626961733A2000504944204175746F74BB
:10123000756E652073746172740A005049442041D0
:1012400075746F74756E65206661696C65642120C4
:1012500054656D706572617475726520746F6F206E
:10126000686967680A00504944204175746F747555
:101270006E65206661696C65642120426164206549
:1012800078747275646572206E756D6265720A009D
:101290006265640A002C2073797374656D20737421
:1012A0006F7070656421204865617465725F4944A0
:1012B0003A200070012C0190012701B0012201C0E9
:1012C000011D01F00118011002130130020E01602E
:1012D00002090190020401C002FF000003FA00406D
:1012E00003F5008003F000D003EB002004E600705B
:1012F00004E100E004DC004005D700C005D2004056
:1013000006CD00D006C8008007C3003008BE00F03C
:1013100008B900C009B400B00AAF00B00BAA00D0F1
:101320000CA500000EA000500F9B00C010960050AE
:1013300012910000148C00C0158700B0178200B015
:10134000197D00D01B7800001E730040206E0090B5
:10135000226900F024640040275F0090295A00E0D1
:101360002B5500102E500020304B0010324600E06C
:1013700033410090353C001037370070383200A000
:10138000392D00B03A2800A03B2300603C1E00101D
:101390003D1900903D1400103E0F00703E0A00C041
:1013A0003E0500003F0000403FFBFF803FF6FFC0CE
:1013B0003FF1FF4531204572723A204D4158544566
:1013C0004D50004572723A204D415854454D5020C1
:1013D000424544004D415854454D50207472696750
:1013E0006765726564004531204572723A204D4947
:1013F0004E54454D50004572723A204D494E544569
:101400004D5020424544004D494E54454D502074A6
:10141000726967676572656400202F002042403A58
:101420000020403A0025753A2530327500253032CB
:10143000753A253032750020202020202000202001
:101440002020003344205072696E7465722052650A
:101450006164792E005072696E74696E672E2E2E4B
:10146000005072696E742070617573656400436F1B
:101470006E74726F6C0050726570617265005475A5
:101480006E6500496E666F2073637265656E004617
:101490006C6F7700466C6F770046616E20737065E5
:1014A00065640046616E2073706565640042656422
:1014B00000426564004E6F7A7A6C65004E6F7A7AEE
:1014C0006C65005370656564005370656564004D1C
:1014D00061696E005072656865617420504C4120EE
:1014E000456E64005072656865617420504C4120FF
:1014F000426564005072656865617420504C41001B
:101500005072657061726500507265686561742023
:1015100041425320456E64005072656865617420D5
:1015200041425320426564005072656865617420D1
:101530004142530050726570617265004D3432381B
:10154000004D38300053776974636820706F776599
:1015500072206F6666004D383100507265686561B3
:101560007420414253005072656865617420504C8C
:101570004100436F6F6C646F776E005377697463DB
:101580006820706F776572206F6E004469736162C6
:101590006C65207374657070657273004D3834002B
:1015A00053657420686F6D65206F6666736574732C
:1015B000004175746F20686F6D6500473238004DCB
:1015C0006F76652061786973004D61696E004D6FBB
:1015D00076652058004D6F76652059004D6F766511
:1015E000205A004578747275646572004D6F766597
:1015F00020302E316D6D004D6F766520316D6D00A0
:101600004D6F76652031306D6D004D6F76652061D0
:10161000786973004578747275646572004D6F76F1
:1016200065205A004D6F76652059004D6F76652014
:1016300058004578747275646572004D6F76652048
:101640005A004D6F76652059004D6F766520580021
:101650005072657061726500526573746F726520B7
:101660006661696C736166650046696C616D656E83
:1016700074004D6F74696F6E0054656D70657261B2
:1016800074757265004D61696E00507265686561C0
:10169000742041425320636F6E6600507265686526
:1016A000617420504C4120636F6E66005049442D98
:1016B00044005049442D44005049442D49005049AC
:1016C000442D49005049442D50005049442D5000AC
:1016D000200220466163740020022046616374008A
:1016E0002002204D6178002002204D617800200208
:1016F000204D696E002002204D696E004F66660025
:101700004F6E20004175746F74656D700046616E98
:101710002073706565640046616E20737065656452
:101720000042656400426564004E6F7A7A6C650021
:101730004E6F7A7A6C6500436F6E74726F6C004204
:10174000656400426564004E6F7A7A6C65004E6F86
:101750007A7A6C650046616E207370656564004638
:10176000616E2073706565640054656D70657261AB
:1017700074757265005654726176206D696E0056FC
:1017800054726176206D696E00566D696E00566DFB
:10179000696E00566D6178204500566D6178204570
:1017A00000566D6178205A00566D6178205A0056B7
:1017B0006D6178205900566D6178205900566D6131
:1017C00078205800566D61782058004D6F74696F0D
:1017D0006E00416D6178204500416D6178204500C3
:1017E000416D6178205A00416D6178205A00416D49
:1017F0006178205900416D6178205900416D617810
:10180000205800416D6178205800412D7472617636
:10181000656C00412D74726176656C00412D7265B6
:10182000747261637400412D726574726163740037
:10183000416363656C00416363656C004D6F74695F
:101840006F6E0056652D6A65726B0056652D6A6570
:10185000726B00567A2D6A65726B00567A2D6A6536
:10186000726B0056792D6A65726B0056792D6A6528
:10187000726B0056782D6A65726B0056782D6A651A
:10188000726B004D6F74696F6E0045737465707391
:101890002F6D6D004573746570732F6D6D005A73F5
:1018A000746570732F6D6D005A73746570732F6D4E
:1018B0006D005973746570732F6D6D005973746585
:1018C00070732F6D6D005873746570732F6D6D009C
:1018D0005873746570732F6D6D004D6F74696F6E02
:1018E0000053746570732F6D6D004A65726B004113
:1018F0006363656C65726174696F6E0056656C6FC9
:101900006369747900436F6E74726F6C0046696C22
:101910002E204469612E0046696C2E204469612E98
:10192000004F6666004F6E20004520696E206D6D89
:101930003300436F6E74726F6C00040E1F041C0042
:101940000000000E1315110E00001C1018170506DC
:101950000500040A0A0A0A11110E0C12120C0000EA
:101960000000001F1511151F0000000021002400B9
:1019700027002A002D00300033000101000004017F
:1019800007010A0100002200250028002B002E007C
:101990003100340002010000050108010B010000C4
:1019A00020002300260029002C002F003200000117
:1019B00000000301060109010505050507050808E2
:1019C0000808020202020A0A0808040404040101C9
:1019D00001010101010103030303030303030407DE
:1019E00007070C0C0C0C0C0C0C0C02020202060675
:1019F0000606060606060B0B0B0B0B0B0B0B010268
:101A00001020200808102040102040800201020110
:101A100008040201010204081020408080402010C8
:101A20000804020180040201804020100804020121
:101A30000804020101020408102040800102040889
:101A40001020408000000A0B02090C0D0E0807034D
:101A50000401000000000000000000000000000081
:101A60000000000000000000000000000000000076
:101A70001211100000000000000000000000000033
:101A80000000000000000000000047322F47332014
:101A900062616420706172616D65746572730A00C1
:101AA000536C6565702E2E2E0000004842000048E1
:101AB000420000804000000000436C69636B2074AA
:101AC0006F20726573756D652E2E2E004E6F206D22
:101AD0006F76652E002569730025696D2025697371
:101AE000002569682025696D2025697300256964D2
:101AF000202569682025696D20256973002569798D
:101B000020256964202569682025696D2025697371
:101B1000005072696E742074696D653A20006F66BA
:101B200066008C018701800179016B0144454255B3
:101B3000473A004B494C4C45442E20004D3131333F
:101B40002053006F6B0050533A310A0050533A3023
:101B50000A003344205072696E746572204F6666C5
:101B60002E00544845524D414C5F50524F5445430E
:101B700054494F4E004155544F5245504F52545FB7
:101B800053445F53544154555300454D45524745C6
:101B90004E43595F50415253455200434153455FB4
:101BA0004C494748545F4252494748544E45535365
:101BB00000544F47474C455F4C49474854530053E6
:101BC0004F4654574152455F504F5745520042557A
:101BD000494C445F50455243454E54004C45564590
:101BE0004C494E475F44415441005A5F50524F4266
:101BF00045004155544F4C4556454C005052494EB6
:101C0000545F4A4F420050524F4752455353004190
:101C100055544F5245504F52545F54454D50005605
:101C20004F4C554D455452494300454550524F4D38
:101C30000053455249414C5F584F4E5F584F4646FE
:101C4000004649524D574152455F4E414D453A4D30
:101C500061726C696E20312E312E392E3120284769
:101C600069746875622920534F555243455F434F4D
:101C700044455F55524C3A68747470733A2F2F671D
:101C800069746875622E636F6D2F4D61726C696E39
:101C90004669726D776172652F4D61726C696E2055
:101CA00050524F544F434F4C5F56455253494F4E3D
:101CB0003A312E30204D414348494E455F545950EA
:101CC000453A3344205072696E7465722045585409
:101CD00052554445525F434F554E543A3120555565
:101CE00049443A63656465326132662D343161324C
:101CF0002D343734382D396231322D633535633622
:101D0000326633363766660A002F2F20004D313495
:101D10003520533C696E6465783E206F7574206F82
:101D2000662072616E67652028302D31290A0020F7
:101D30005400205200416363656C65726174696F81
:101D40006E3A205000486F6D65202573257325730A
:101D5000206669727374002066697273740A005A8F
:101D60000059005800486F6D652000000040C10018
:101D70000050C1000000004F6666736574732061F7
:101D800070706C696564004572723A20546F6F2000
:101D90006661722100546F6F206661722066726FF7
:101DA0006D207265666572656E636520706F696E21
:101DB000740A00FFFFFF205A00205900580020201D
:101DC0004D61783A2000205A002059005800202008
:101DD0004D696E3A20004F6E20004F666600536FCB
:101DE000667420656E6473746F70733A20002046C9
:101DF0006C6F773A2000000136372603FFFFFF356E
:101E00003C3D380EFFFFFF312E303E12FFFFFFFF3B
:101E100028FF0C0809FFFFFF1A1C18FFFF2A0844BF
:101E20000AFF433A200020536572766F2000206F2E
:101E30007574206F662072616E67650A0053657263
:101E4000766F2000496E76616C69642065787472E3
:101E5000756465720A0020643A0020693A002070B7
:101E60003A0043290A0061626C656420286D696E3E
:101E70002074656D702000436F6C64206578747207
:101E8000756465732061726520004E6F2063617315
:101E900065206C696768740A00454550524F4D20B3
:101EA00064697361626C65640A0041637469766594
:101EB0002045787472756465723A2000496E7661C7
:101EC0006C69642065787472756465720A00456E89
:101ED0006473746F7073202563202563202563204D
:101EE000256300205A3A0020593A0020583A0065EC
:101EF0006E6473746F7073206869743A2000556E55
:101F00006B6E6F776E20636F6D6D616E643A202229
:101F10000020746F6F206C6F6E6720657874727527
:101F200073696F6E2070726576656E7465640A0001
:101F300020636F6C6420657874727573696F6E20AE
:101F400070726576656E7465640A006563686F3AE1
:101F5000004572726F723A00C98711241FBECFEF1D
:101F6000D1E2DEBFCDBF00E00CBF12E0A0E0B2E0E6
:101F7000E2EDF1E501E00BBF02C007900D92A83839
:101F8000B107D9F72DE0A8E8B2E001C01D92A53451
:101F9000B207E1F71FE0CDEADFE000E006C02197DD
:101FA0000109802FFE010E949DA8CC3AD10780E054
:101FB0000807A9F70E944C880C94E7A80C9400002D
:101FC0001092E1068091DD069091DE06A091DF0679
:101FD000B091E00681309048A105B10540F0109223
:101FE000DD061092DE061092DF061092E0062091C8
:101FF000DD062093DC061092DB068091DA061816C7
:10200000C4F4082E000C990B0197022E000C330B20
:102010002817390774F08093DC06092E000CAA0BF0
:10202000BB0B8093DD069093DE06A093DF06B09392
:10203000E0068091DC069091D906891714F480930C
:10204000D9062091D906022E000C330B2D5F3F4F8D
:10205000482F082E000C550B241735071CF483500D
:102060008093D90608958F929F92AF92BF92CF929C
:10207000DF92EF92FF92CF93FC01C080D180E2808B
:10208000F38020E030E44CE156E4C701B6010E9441
:10209000E9A14B015C0120E030E0A901C701B601D4
:1020A0000E9484A120E030E040EA50E487FF04C0B1
:1020B00020E030E040EA50ECC501B4010E94A6A542
:1020C00020E030E040E251E40E9482A60E94EAA6AD
:1020D0006B017C01C114D104E104F10409F456C080
:1020E000F7FE54C0F094E094D094C094C11CD11C6D
:1020F000E11CF11C8DE28093C106C701B60128EEF8
:1021000033E040E050E00E946AA58AE0882E912CDE
:10211000A12CB12CCA01B901A50194010E946AA5A4
:10212000605D6093C2068EE28093C306C701B6016C
:1021300024E630E040E050E00E946AA5CA01B901FF
:10214000A50194010E946AA5605D6093C406C70161
:10215000B601A50194010E946AA5C62FCA01B90162
:10216000A50194010E946AA5605D6093C506C05DEB
:10217000C093C60681EC96E0CF91FF90EF90DF9080
:10218000CF90BF90AF909F908F90089580E2B3CF93
:102190000895AF92BF92CF92DF92EF92FF920F938A
:1021A0001F93CF93DF936C017B018B01040F151FED
:1021B000EB015E01AE18BF08C017D10759F0699155
:1021C000D601ED91FC910190F081E02DC6011995A9
:1021D000892B79F7C501DF91CF911F910F91FF9066
:1021E000EF90DF90CF90BF90AF90089581508231F3
:1021F00008F05AC0E82FF0E08827EE5FFE4E8F4FC0
:102200000C949DA82211261114111A111E1154119B
:1022100029112F11331139113D11411147114B1162
:1022200054114F1155115911809180008F7780936F
:1022300080000895809180008F7DF9CF809180008B
:10224000877FF5CF84B58F7784BD089584B58F7D62
:10225000FBCF8091B0008F778093B000089580917C
:10226000B0008F7DF9CF809190008F7780939000A0
:102270000895809190008F7DF9CF80919000877FA5
:10228000F5CF8091A0008F778093A0000895809172
:10229000A0008F7DF9CF8091A000877FF5CF80913E
:1022A00020018F77809320010895809120018F7DF8
:1022B000F9CF80912001877FF5CFCF93DF93282F2F
:1022C00030E0F901EC5BF54E8491F901E250F64EF5
:1022D000D491F901E854F64EC491CC2399F08111C0
:1022E00085DFEC2FF0E0EE0FFF1FE256F64EA591D2
:1022F000B491EC91ED2381E090E009F480E0DF916E
:10230000CF91089580E090E0FACF1F93CF93DF93B1
:10231000282F30E0F901EC5BF54E8491F901E25091
:10232000F64ED491F901E854F64EC491CC23A1F0B5
:10233000162F81115BDFEC2FF0E0EE0FFF1FEC5743
:10234000F64EA591B4918FB7F894EC91111108C095
:10235000D095DE23DC938FBFDF91CF911F9108953D
:10236000DE2BF8CFCF93DF9390E0FC01E250F64EE6
:1023700024918854964EFC0184918823D1F090E0FA
:10238000880F991FFC01E659F64EA591B491FC0106
:10239000EC57F64EC591D49161110EC09FB7F894D9
:1023A0008C91E22FE0958E238C932881E223E883A1
:1023B0009FBFDF91CF9108958FB7F894EC91E22BF6
:1023C000EC938FBFF6CF1F93CF93DF93182FEB01C2
:1023D00061E0C8DF209731F460E0812FDF91CF9179
:1023E0001F9193CFCF3FD10511F461E0F6CFE12FDC
:1023F000F0E0EC5BF54EE491E150E23108F0B3C05F
:10240000F0E08827E95FFD4E8F4F0C949DA81912CC
:102410002112261230123A12B31244124C125412E4
:102420005E126812721281128B12B31295129F12F1
:10243000A91284B5806884BDC7BDDF91CF911F917B
:10244000089584B5806284BDC8BDF7CF80918000B7
:10245000806880938000D0938900C0938800EDCF7E
:1024600080918000806280938000D0938B00C09325
:102470008A00E3CF80918000886080938000D093B1
:102480008D00C0938C00D9CF8091B000806880937C
:10249000B000C093B300D1CF8091B0008062809330
:1024A000B000C093B400C9CF809190008068809341
:1024B0009000D0939900C0939800BFCF8091900076
:1024C000806280939000D0939B00C0939A00B5CF18
:1024D00080919000886080939000D0939D00C0937D
:1024E0009C00ABCF8091A00080688093A000809179
:1024F000A0008F7B8093A000D093A900C093A80078
:102500009CCF8091A00080628093A000D093AB000C
:10251000C093AA0092CF8091A00088608093A00011
:10252000D093AD00C093AC0088CF8091200180682B
:1025300080932001D0932901C09328017ECF809100
:102540002001806280932001D0932B01C0932A0147
:1025500074CF80912001886080932001D0932D0159
:10256000C0932C016ACFC038D1050CF03ECF34CFD8
:102570003FB7F89480917F0490918004A0918104EA
:10258000B091820426B5A89B05C02F3F19F0019693
:10259000A11DB11D3FBFBA2FA92F982F8827BC01BD
:1025A000CD01620F711D811D911D42E0660F771FE5
:1025B000881F991F4A95D1F708958F929F92AF92E5
:1025C000BF92CF92DF92EF92FF926B017C01D0DF3E
:1025D0004B015C01C114D104E104F104B1F0C8DF86
:1025E000681979098A099B09683E7340810591053C
:1025F00088F321E0C21AD108E108F10888EE880EBC
:1026000083E0981EA11CB11CE5CFFF90EF90DF90F6
:10261000CF90BF90AF909F908F9008952FB7F89470
:1026200060917B0470917C0480917D0490917E0484
:102630002FBF0895089590E080E008958F929F92B3
:10264000AF92BF92CF92DF92EF92FF92CF93FC01B5
:10265000C080D180E280F38020E030E0A901C70192
:10266000B6010E9484A187FFA2C0C701B60190589D
:1026700020E030E04AE754E40E94E9A120E030E0A5
:1026800040EA50E40E94A6A520E030E040E251E498
:102690000E9482A60E94EAA66B017C0160E2F0EA39
:1026A000CF16F6E8DF06F1E0EF06F10484F0B6019C
:1026B00020EA36E841E050E00E946AA5CA01B9016B
:1026C0002AE030E040E050E00E946AA5605D60933F
:1026D000C00660E280E1C81687E2D806E104F10492
:1026E0008CF0C701B60120E137E240E050E00E94E3
:1026F0006AA5CA01B9012AE030E040E050E00E943A
:102700006AA5605D6093C10660E2E8EECE16E3E084
:10271000DE06E104F1048CF0C701B60128EE33E0D7
:1027200040E050E00E946AA5CA01B9012AE030E009
:1027300040E050E00E946AA5605D6093C206C70158
:10274000B60124E630E040E050E00E946AA58AE04D
:10275000882E912CA12CB12CCA01B901A50194019C
:102760000E946AA5605D6093C3068EE28093C406F2
:10277000C701B601A50194010E946AA5C62FCA012E
:10278000B901A50194010E946AA5605D6093C50628
:10279000C05DC093C60680EC96E0CF91FF90EF90AD
:1027A000DF90CF90BF90AF909F908F90089520E0E2
:1027B00030E04AE754E4C701B6015ECF8F929F92A2
:1027C000AF92BF92CF92DF92EF92FF92CF93FC0134
:1027D000C080D180E280F38020E030E04AE754E41A
:1027E000C701B6010E94E9A14B015C0120E030E085
:1027F000A901C701B6010E9484A120E030E040EAAF
:1028000050E487FF04C020E030E040EA50ECC5010E
:10281000B4010E94A6A520E030E040E251E40E940D
:1028200082A60E94EAA66B017C018BE2F7FE09C03A
:10283000F094E094D094C094C11CD11CE11CF11C14
:102840008DE28093C006C701B60120E137E240E087
:1028500050E00E946AA58AE0882E912CA12CB12C10
:10286000CA01B901A50194010E946AA5605D609347
:10287000C106C701B60128EE33E040E050E00E94F7
:102880006AA5CA01B901A50194010E946AA5605D0B
:102890006093C206C701B60124E630E040E050E094
:1028A0000E946AA5CA01B901A50194010E946AA506
:1028B000605D6093C3068EE28093C406C701B601D3
:1028C000A50194010E946AA5C62FCA01B901A501FC
:1028D00094010E946AA5605D6093C506C05DC093C7
:1028E000C60680EC96E0CF91FF90EF90DF90CF90FE
:1028F000BF90AF909F908F9008958F929F92AF92CC
:10290000BF92CF92DF92EF92FF92FC01C080D18004
:10291000E280F38020E030E0A901C701B6010E9407
:1029200084A187FF99C0C701B601905820E030E02C
:1029300040E251E40E94E9A120E030E040EA50E4A6
:102940000E94A6A520E030E040E251E40E9482A669
:102950000E94EAA66B017C0160E2F0E1CF16F7E28B
:10296000DF06E104F10484F0B60120E137E240E043
:1029700050E00E946AA5CA01B9012AE030E040E0B7
:1029800050E00E946AA5605D6093C20660E288EE36
:10299000C81683E0D806E104F1048CF0C701B60143
:1029A00028EE33E040E050E00E946AA5CA01B90178
:1029B0002AE030E040E050E00E946AA5605D60934C
:1029C000C30660E2E4E6CE16D104E104F1048CF023
:1029D000C701B60124E630E040E050E00E946AA55D
:1029E000CA01B9012AE030E040E050E00E946AA547
:1029F000605D6093C40660E2FAE0CF16D104E104A2
:102A0000F10494F08AE0882E912CA12CB12CC701FE
:102A1000B601A50194010E946AA5CA01B901A501E8
:102A200094010E946AA5605D6093C506C701B60166
:102A30002AE030E040E050E00E946AA5605D6093CB
:102A4000C60682EC96E0FF90EF90DF90CF90BF90AB
:102A5000AF909F908F90089520E030E040E251E4E5
:102A6000C701B60167CF8F929F92AF92BF92CF926C
:102A7000DF92EF92FF92FC01C080D180E280F38070
:102A800020E030E048EC52E4C701B6010E94E9A121
:102A90004B015C0120E030E0A901C701B6010E94B2
:102AA00084A120E030E040EA50E487FF04C020E049
:102AB00030E040EA50ECC501B4010E94A6A520E038
:102AC00030E040E251E40E9482A60E94EAA69B0107
:102AD0008BE237FF05C022273327261B370B8DE2F9
:102AE0008093C106C90168EE73E00E948AA8CB01F9
:102AF000EAE0F0E0BF010E948AA8805D8093C206F0
:102B0000C90164E670E00E948AA8CB01BF010E945F
:102B10008AA8805D8093C306C901BF010E948AA86C
:102B2000282FCB01BF010E948AA8805D8093C40634
:102B30008EE28093C506205D2093C60681EC96E068
:102B4000FF90EF90DF90CF90BF90AF909F908F90CD
:102B500008958F929F92AF92BF92CF92DF92EF92A1
:102B6000FF92CF93FC01C080D180E280F38020E00F
:102B700030E04AE754E4C701B6010E94E9A14B01E5
:102B80005C0120E030E0A901C701B6010E9484A1E8
:102B900020E030E040EA50E487FF04C020E030E06D
:102BA00040EA50ECC501B4010E94A6A520E030E047
:102BB00040E251E40E9482A60E94EAA66B017C01D9
:102BC000F7FC5AC020E137E240E050E00E946AA5DD
:102BD000CA01B9012AE030E040E050E00E946AA555
:102BE000605D6093C106C701B60128EE33E040E0A6
:102BF00050E00E946AA58AE0882E912CA12CB12C6D
:102C0000CA01B901A50194010E946AA5605D6093A3
:102C1000C206C701B60124E630E040E050E00E9461
:102C20006AA5CA01B901A50194010E946AA5605D67
:102C30006093C3068EE28093C406C701B601A50166
:102C400094010E946AA5C62FCA01B901A501940189
:102C50000E946AA5605D6093C506C05DC093C6060C
:102C600081EC96E0CF91FF90EF90DF90CF90BF90F6
:102C7000AF909F908F900895F094E094D094C0947A
:102C8000C11CD11CE11CF11C6DE2ABCF9C0197FF74
:102C900026C0EE27FF27E81BF90B2D398FEF3807E9
:102CA0000CF05DC08DE28093C306CF0164E670E056
:102CB0000E948AA8CB012AE030E0B9010E948AA8CC
:102CC000805D8093C406CF01B9010E948AA8CB0120
:102CD000B9010E948AA8805D8093C5062AC0283E5B
:102CE00083E03807B4F1C90168EE73E00E948AA856
:102CF000CB01EAE0F0E0BF010E948AA8805D8093EA
:102D0000C306C90164E670E00E948AA8CB01BF0136
:102D10000E948AA8805D8093C406C901BF010E94F9
:102D20008AA8CB01BF010E948AA8805D8093C50656
:102D3000F901CF016AE070E00E948AA8805D80936B
:102D4000C60683EC96E008958DE237FDC5CF80E29C
:102D5000C3CFF90180E2243631050CF0A4CF80E224
:102D60008093C3068093C406EA30F1056CF38DE2CC
:102D700037FF80E28093C406CF016AE070E00E94D2
:102D80008AA8605D6093C506D4CF9C01EAE0F0E0BC
:102D9000BF010E948AA8805D8093C6062A30310553
:102DA000CCF0CB01BF010E948AA8805D8093C5064C
:102DB0002436310594F0C90164E670E00E948AA8C7
:102DC000CB01BF010E948AA8805D8093C40684EC79
:102DD00096E0089586EC96E0089585EC96E00895D7
:102DE0009C0197FD2DC080E2243631055CF0C901BD
:102DF00064E670E00E948AA8CB016AE070E00E945D
:102E00008AA8805D8093C40680E22A3031055CF098
:102E1000EAE0F0E0C901BF010E948AA8CB01BF012E
:102E20000E948AA8805D8093C506C9016AE070E0AF
:102E30000E948AA8805D8093C60684EC96E008957F
:102E40003195219531098DE2DDCF20911E0230911F
:102E50001F022F503109821793070CF49C01309305
:102E600079042093780408950F931F93D7DB009182
:102E70007404109175042091760430917704601BDE
:102E8000710B820B930B97FD0CC086B186FB8827D4
:102E900080F991E08927349B8260329B8460809323
:102EA00073048091730481709091730491FD82602A
:102EB00090917204981749F0813009F148F08230FE
:102EC00079F0833091F0809372041F910F910895EF
:102ED000913079F09230B9F79091710491500CC013
:102EE000992339F09330C1F3EECF9130A9F39230AA
:102EF00051F7909171049F5F90937104E4CF9923EF
:102F000059F3933001F7F5CFFC0190E080E0249174
:102F1000222339F02491207C203809F00196319643
:102F2000F6CF0895FC0130E020E09191992331F033
:102F3000907C9038D1F32F5F3F4FF7CFC9010895B0
:102F40002CEA35EC47E25EE360915304709154043F
:102F500080915504909156040E9482A660932205A8
:102F600070932305809324059093250508952CEAFA
:102F700035EC47E25EE3609157047091580480910C
:102F8000590490915A040E94E9A160932605709318
:102F9000270580932805909329050895CF92DF9205
:102FA000EF92FF92CF93C82F39DB6B017C0124EAAB
:102FB00030E74DE75FE360914D0470914E048091DE
:102FC0004F04909150040E9484A187FD18C08AEF9D
:102FD00090E0A0E0B0E08C0D9D1DAE1DBF1D809364
:102FE0005C0490935D04A0935E04B0935F04C0936F
:102FF0001C02CF91FF90EF90DF90CF90089580E07A
:1030000090E0DC01E8CF6091310270913202072E2E
:10301000000C880B990B0E948AA12AE037ED43E24D
:103020005CE30E94E9A120911E0530911F054091AB
:103030002005509121050E94E9A160933F02709301
:103040004002809341029093420208950895809136
:1030500041048630D8F496E0899FF0011124E35EA4
:10306000FB4F20913502309136023183208340910D
:10307000DD065091DE066091DF067091E006428326
:103080005383648375838F5F809341040895AF9267
:10309000BF92CF92DF92EF92FF920F931F93CF9345
:1030A000DF935C017B016A01E901D1DF83E080935A
:1030B0003E02B092D306A092D206F092D106E092E0
:1030C000D006A601DD0C660B770B4093CC0650931F
:1030D000CD066093CE067093CF06CE01DD0FAA0B0E
:1030E000BB0B841B950BA60BB70B8093C806909364
:1030F000C906A093CA06B093CB06F70180819181DF
:10310000092E000CAA0BBB0B841B950BA60BB70B4F
:103110008093DD069093DE06A093DF06B093E00671
:1031200087E49FE390933602809335021093D6068E
:103130000093D5061092D406DF91CF911F910F9185
:10314000FF90EF90DF90CF90BF90AF9008954F9297
:103150005F926F927F928F929F92AF92BF92CF9227
:10316000DF92EF92FF920F931F93CF93DF936C0147
:10317000EB0129013A0147016ADF83E080933E02B7
:10318000D092D306C092D206D093D106C093D00677
:10319000C301B2010E94EAA66093CC067093CD06EB
:1031A0008093CE069093CF060E948AA16B017C018A
:1031B000AC019B01C801B4010E94A5A50E94EAA62A
:1031C0006093C8067093C9068093CA069093CB0695
:1031D000A7019601688179818A819B810E94A5A5BA
:1031E0000E94EFA66093DD067093DE068093DF06F3
:1031F0009093E00682E99EE3909336028093350235
:103200001092D6061092D5061092D406DF91CF9177
:103210001F910F91FF90EF90DF90CF90BF90AF90F4
:103220009F908F907F906F905F904F900895CF9276
:10323000DF92EF92FF920F931F93CF93DF938C0156
:10324000EB0169017A0103DF83E080933E02109372
:10325000D3060093D206D093D106C093D006C701FF
:10326000B6010E9488A12AE037ED43E25CE30E94A8
:10327000E9A10E94EAA66093CC067093CD068093E4
:10328000CE069093CF060E948AA16B017C01AC010F
:103290009B0160E070E887E794E40E94A5A50E9486
:1032A000EAA66093C8067093C9068093CA069093F5
:1032B000CB06688179818A819B810E9488A12AE05E
:1032C00037ED43E25CE30E94E9A1A70196010E9469
:1032D000A5A50E94EFA66093DD067093DE0680939D
:1032E000DF069093E00681E29AE3909336028093A2
:1032F000350289E79DE19093D6068093D50610921A
:10330000D406DF91CF911F910F91FF90EF90DF9046
:10331000CF9008954F925F926F927F928F929F927B
:10332000AF92BF92CF92DF92EF92FF920F931F93D3
:10333000CF93DF936C01EB0129013A01470187DE4E
:1033400083E080933E02D092D306C092D206D093FF
:10335000D106C093D00620E030E048EC52E4C3012F
:10336000B2010E94E9A10E94EAA66093CC06709384
:10337000CD068093CE069093CF060E948AA16B0162
:103380007C0120E030E048EC52E4C801B4010E9426
:10339000E9A1A70196010E94A5A50E94EAA6609353
:1033A000C8067093C9068093CA069093CB0620E0A6
:1033B00030E048EC52E4688179818A819B810E94E7
:1033C000E9A1A70196010E94A5A50E94EFA660931E
:1033D000DD067093DE068093DF069093E006DF91B2
:1033E000CF911F910F91FF90EF90DF90CF90BF9002
:1033F000AF909F908F907F906F905F904F900895C7
:103400008F929F92AF92BF92CF92DF92EF92FF92F4
:103410000F931F93CF93DF93B0E4A0E06A2F70E087
:10342000AB014B0F511D559547954A1711F0B41339
:1034300019C0E1EBF3E165917491072E000C880B44
:10344000990B0E948AA1DF91CF911F910F91FF905C
:10345000EF90DF90CF90BF90AF909F908F900895A6
:10346000B42FDECF9A0121503109220F331F220FD2
:10347000331FF901ED54FD4EE590F490F901E95444
:10348000FD4EC591D4918E159F0554F3A42FC817F6
:10349000D9070CF4C3CFF901EB54FD4E05911491FB
:1034A000F901E754FD4EC590D490BC016E197F0917
:1034B000072E000C880B990B0E948AA14B015C011E
:1034C000B601601B710B072E000C880B990B0E9434
:1034D0008AA19B01AC01C501B4010E94E9A14B0185
:1034E0005C01BE016E197F09072E000C880B990B39
:1034F0000E948AA19B01AC01C501B4010E9482A671
:103500006B017C01B801110F880B990B0E948AA1F5
:103510009B01AC01C701B6010E94A6A594CF8F9272
:103520009F92AF92BF92CF92DF92EF92FF920F9352
:103530001F93CF93DF93B0E4A0E06A2F70E0AB015C
:103540004B0F511D55954795A41711F0B41319C091
:10355000E1EBF3E165917491072E000C880B990B58
:103560000E948AA1DF91CF911F910F91FF90EF9060
:10357000DF90CF90BF90AF909F908F900895B42F21
:10358000DECF9A0121503109220F331F220F331F42
:10359000F901ED54FD4EE590F490F901E954FD4E2A
:1035A000C591D4918E159F0554F3A42FC817D90740
:1035B0000CF4C3CFF901EB54FD4E05911491F901C0
:1035C000E754FD4EC590D490BC016E197F09072EBB
:1035D000000C880B990B0E948AA14B015C01B6017B
:1035E000601B710B072E000C880B990B0E948AA19F
:1035F0009B01AC01C501B4010E94E9A14B015C0132
:10360000BE016E197F09072E000C880B990B0E94D2
:103610008AA19B01AC01C501B4010E9482A66B0185
:103620007C01B801110F880B990B0E948AA19B01A4
:10363000AC01C701B6010E94A6A594CF0F931F93BA
:103640008091C804813019F50E940E130091EA039D
:103650001091EB032091EC033091ED03601B710B93
:10366000820B930B28EE33E040E050E00E9448A527
:103670006091E6037091E7038091E8039091E9037C
:10368000620F731F841F951F1F910F910895609102
:10369000C4047091C5048091C6049091C704D6CF2C
:1036A0001092C8041092EA031092EB031092EC03FC
:1036B0001092ED031092C4041092C5041092C60437
:1036C0001092C7041092E6031092E7031092E803E9
:1036D0001092E90308958091C8048130E1F08230AE
:1036E000C1F4ACDF6093E6037093E7038093E803D3
:1036F0009093E90381E08093C8040E940E136093C5
:10370000EA037093EB038093EC039093ED0381E065
:103710000895C6DFEFCF80E008958091C8048150FE
:10372000823070F41092C8040E940E136093C40497
:103730007093C5048093C6049093C70481E00895F4
:1037400080E0089510925B0490E080E07EDB1092B0
:10375000D8061092D706E1DF90E080E076DB109289
:103760001B042C981092D8061092D70610921C04B5
:1037700080910201807280930001089590916F0002
:10378000292F227091FF05C090916F009D7F90932B
:103790006F0034E0839FC0011124FC01E955FB4F09
:1037A000408151816281738186529C4FFC0140832C
:1037B00051836283738381E08093D903222329F0AC
:1037C00080916F00826080936F000895BC0120910A
:1037D000D7033091D8034091D7035091D8032417D1
:1037E000350731F481E02617370709F080E00895A6
:1037F0009A01F1CF8091900380FF24C089988FEFC8
:10380000809300028091900381FF1FC08F9A8FEFF9
:10381000809301028091900382FF1AC080910B0176
:103820008270809309018FEF809302028091900350
:1038300083FF16C016988FEF8093030200000000EC
:1038400000000895899A81E0DBCF8F9881E0E0CF76
:1038500080910B01809582708093090181E0E4CF13
:10386000169A81E0E9CF009781F41092900082E0EF
:10387000809391001092950010929400C19A8091CB
:10388000710082608093710008958130910569F420
:103890001092A00082E08093A1001092A5001092E7
:1038A000A40089BB809372000895029761F410927E
:1038B000200182E0809321011092250110922401C1
:1038C0008ABB809373000895AF92BF92CF92DF922C
:1038D000EF92FF920F931F93CF93DF936B017A01C7
:1038E000EC01C357DC4F28813CE0389F8001399FB1
:1038F000100D1124A0901D0DB12C27FF1FC0FB013E
:103900001182108288818F5F888388819801280FB7
:10391000311D87FD3A95F6012A153B051CF4888177
:103920008C30C4F180819181049680349C4908F4E4
:1039300073C0F60180819181049670C088819801DE
:10394000280F311D87FD3A952A153B05DCF6888145
:10395000A801480F511D87FD5A95FA01EE0FFF1F70
:10396000E40FF51FEF54F34F808186FFCBCF8881A2
:10397000F801E80FF11D87FDFA95CF01EE0FFF1F4B
:10398000E80FF91FEF54F34F808160E08F730E94BE
:103990008511B8CF808191812881A801420F511DE6
:1039A00027FD5A959A01FA01EE0FFF1FE20FF31F50
:1039B000EF54F34F21813281820F931FF7019183DE
:1039C000808388819801280F311D87FD3A95F90180
:1039D000EE0FFF1FE20FF31FEF54F34F808186FFBE
:1039E00022C08881080F111D87FD1A95F801EE0F7E
:1039F000FF1FE00FF11FEF54F34F808161E08F73E1
:103A0000DF91CF911F910F91FF90EF90DF90CF90BA
:103A1000BF90AF900C94851180E49CE9F7019183ED
:103A200080838FEF8883DF91CF911F910F91FF905B
:103A3000EF90DF90CF90BF90AF9008954F925F923C
:103A40006F927F928F929F92AF92BF92EF92FF926E
:103A50000F931F93CF93DF93C9EED4E083E4E82E56
:103A60008CE0F82E0AE117E0412C512C32014394EE
:103A70006991799189919991F70181909190A190A3
:103A8000B1907F010E9488A1A50194010E94E9A143
:103A90000E94EFA6F80161937193819391938F0136
:103AA000461657066806790610F42B013C01F4E02F
:103AB000C93FDF07E9F66FEF7FEFCB01A30192016A
:103AC0000E9448A520932A0730932B0740932C0788
:103AD00050932D07DF91CF911F910F91FF90EF90A1
:103AE000BF90AF909F908F907F906F905F904F901E
:103AF0000895A4CFCF93DF9390916F00292F227068
:103B000091FF05C090916F009D7F90936F0094E0AE
:103B1000899FA0011124FA01E955FB4F6081718151
:103B200082819381222329F020916F0022602093CB
:103B30006F00EA01CE5AD84F0E948AA128813981AC
:103B40004A815B810E94E9A1DF91CF910895CF93D3
:103B5000DF9390916F00292F227091FF05C0909103
:103B60006F009D7F90936F0094E0899FA0011124C6
:103B7000FA01E652FC4F6081718182819381222398
:103B800029F020916F00226020936F00EA01CE5A45
:103B9000D84F0E948AA1288139814A815B810E9485
:103BA000E9A1DF91CF910895CF92DF92EF92FF923A
:103BB0008091E804882309F457C0C090E404D090B1
:103BC000E504E090E604F090E70420E030E0A9018D
:103BD000C701B6010E9484A1882309F445C020E0F2
:103BE00030E040E05FE3C701B6010E94E9A19B011C
:103BF000AC010E94E9A12BED3FE049E450E40E94B2
:103C0000E9A19B01AC0160E070E080E89FE30E94C5
:103C100082A66B017C01C0921E05D0921F05E09226
:103C20002005F09221056091310270913202072E39
:103C3000000C880B990B0E948AA12AE037ED43E221
:103C40005CE30E94E9A1A70196010E94E9A16093AB
:103C50003F02709340028093410290934202FF9092
:103C6000EF90DF90CF900895C12CD12C80E8E82E02
:103C70008FE3F82ED0CF80916F00982F927081FF44
:103C800005C080916F008D7F80936F0010924A076E
:103C900010924B0710924C0710924D07992329F070
:103CA00080916F00826080936F0008950F931F933F
:103CB00080918B0C90918C0C891B8F7009F449C0FA
:103CC0009091880C992361F0833040F48FEF890F35
:103CD00029F08093880C90E080E038C01092880C26
:103CE00080918C0C2DE4829FC00111248E58984F36
:103CF000FC01208120FDEFCF40914A0750914B07F6
:103D000060914C0770914D07E75BFF4F0081118177
:103D100022813381401B510B620B730B40934A0786
:103D200050934B0760934C0770934D0720918C0C78
:103D30002F5F2F702093890C30918C0C20918A0C6E
:103D4000321304C02091890C20938A0C1F910F918B
:103D5000089591DFC0CFCF93DF9380918C03659955
:103D60004AC0816080938C039091030180918C0301
:103D700091FD43C0826080938C0380918C034B99AA
:103D80003EC0846080938C03C091CA03C0FF0FC003
:103D90008091900380FF0BC080918C0380FF07C04F
:103DA0008091BD0681608093BD0680E0E7DCC1FFA5
:103DB0000FC08091900381FF0BC080918C0381FF25
:103DC00007C08091BD0682608093BD0681E0D6DC8D
:103DD000C2FF17C08091900382FF13C080918C03B3
:103DE00082FF0FC08091BD0684608093BD0682E093
:103DF000DF91CF91C3CC8E7FB5CF8D7FBCCF8B7F32
:103E0000C1CFDF91CF910895CF92DF92EF92FF92D1
:103E1000CF93DF93EC01C0901205D0901305E09092
:103E20001405F0901505A7019601688179818A81B2
:103E30009B810E9484A187FF04C0C882D982EA8244
:103E4000FB82C0901605D0901705E0901805F09001
:103E50001905A70196016C817D818E819F810E9449
:103E600084A187FF04C0CC82DD82EE82FF82C090F5
:103E70002502D0902602E0902702F0902802A701A8
:103E80009601688179818A819B810E94CCA718164E
:103E900024F4C882D982EA82FB82C0902902D090A1
:103EA0002A02E0902B02F0902C02A70196016C816F
:103EB0007D818E819F810E94CCA7181624F4CC822C
:103EC000DD82EE82FF82C0901A05D0901B05E09043
:103ED0001C05F0901D05A7019601688579858A85E6
:103EE0009B850E9484A187FF04C0C886D986EA8684
:103EF000FB86C0902D02D0902E02E0902F02F09011
:103F00003002A7019601688579858A859B850E9484
:103F1000CCA7181624F4C886D986EA86FB86DF91DA
:103F2000CF91FF90EF90DF90CF9008955F9A8091AE
:103F3000CF048E7F8093CF048A9A8091CF048D7FA7
:103F40008093CF0480910801809581708093060151
:103F50008091CF048B7F8093CF04129A0895CF93E2
:103F6000DF9380E0C7DDC2E7D3E0688379838A838B
:103F70009B8381E0BFDD6C837D838E839F8382E0A2
:103F8000B9DD688779878A879B87DF91CF9108950C
:103F90000F931F93CF93DF9394E0899FE001112447
:103FA0008E010A5F1A4FFE01E650FB4FDE01A95455
:103FB000BB4F2D913D914D915C91608171818281CA
:103FC00093810E94A6A5F801608371838283938305
:103FD000FE01E454FD4F85919591A591B491FE01A8
:103FE000EE5EFA4F80839183A283B383FE01E85390
:103FF000FD4F85919591A591B491CB5DDD4F88835F
:104000009983AA83BB83DF91CF911F910F9108956C
:1040100090918A02E92FF0E0E15DFA4F80839F5F83
:10402000943040F490938A028091BF068F5F809312
:10403000BF06089510928A02F7CF0F931F93CF9374
:10404000DF93EC010E940E130E811F8128853985B4
:10405000011511052105310579F52C85222339F14A
:10406000EA8521502C8721E02E0F2A873D852313D6
:1040700001C01A86F0E03196EE0FFF1FEE0FFF1F12
:10408000EC0FFD1F02851385248535850A831B836C
:104090002C833D83600F711F811D911D6E837F8373
:1040A000888799878C819D81892B09F0409ADF91BF
:1040B000CF911F910F910895601B710B820B930B91
:1040C00097FDF5CF40981E821F8218861986EFCF84
:1040D0002FEB280F2A3108F042C0E22FF0E0809148
:1040E0009D0490919E04A0919F04B091A00404C0EF
:1040F000B695A795979587952A95D2F780FD02C02A
:1041000081700895ED57FB4FE081EE2329F18091F6
:10411000E2069091E306E80FF92FF11D808190ED02
:10412000980F9A3030F08E3251F4818180538A306A
:1041300098F4F0938902E093880281E008958D322B
:1041400011F08B3249F4818190ED980F9A3088F309
:104150008E3211F48281EACFF0E0E0E0EACF80E035
:104160000895B6DF882341F081E0209188023091E4
:104170008902232B09F480E008959091C00095FFF7
:10418000FCCF8093C60008950F931F93CF93DF93C6
:10419000162F072FEC01FE0184912196811107C093
:1041A000C12FD02F8991882321F0E7DFFBCFE5DFF6
:1041B000F2CFDF91CF911F910F910895CF93DF93AD
:1041C000CBE4DFE1FE0184912196882311F0D5DF55
:1041D000F9CF6091E2067091E3068EEF9EE1D4DFA5
:1041E00082E2CBDF8AE0DF91CF91C7CF1F93CF93DD
:1041F000DF93182FEB01FE0184912196811109C0F4
:10420000CDEAD8E0FE0184912196882321F0B5DF24
:10421000F9CFB3DFF0CFC8EAD8E0112311F0CEE92F
:10422000D8E0FE0184912196882311F0A6DFF9CF12
:104230008AE0DF91CF911F91A0CFCF93DF93E2EC83
:10424000F8E08491882341F0C3ECD8E096DFFE01CA
:10425000849121968111FACF8CB1C1E085FB88272A
:1042600080F96CEB78E08C27C1DF809103018695A3
:10427000817066EB78E08C27B9DF89B183FB8827F2
:1042800080F960EB78E08C27DF91CF91AFCFCF93AF
:10429000DF93C2E0D6E0FE0184912196882311F0DD
:1042A0006CDFF9CF8AE0DF91CF9167CFCF93DF93B7
:1042B000C1E5DFE1FE0184912196811109C0C8EEBC
:1042C000D2E0FE0184912196882321F056DFF9CFB8
:1042D00054DFF0CFDF91CF910895809170039091DA
:1042E00071032FEF3FEF981751F0E92FF0E0E05105
:1042F000FD4F208130E09F5F9F7790937103C9014C
:104300000895CF93DF93EC0160E08E810E948511C8
:1043100061E08E810E94851160E08E810E9485118E
:104320008BE891E00197F1F7DF91CF910895CF925B
:10433000DF92EF92FF920F931F93CF93DF936C0165
:104340007C0187E0E80EF11CD0E0C0E0062F10E011
:10435000B8010C2E02C0759567950A94E2F761705A
:10436000F70181917F010E9485112196C430D1050A
:1043700079F7C601DF91CF911F910F91FF90EF90D8
:10438000DF90CF90BECFCF92DF92EF92FF920F934C
:104390001F93CF93DF93EC01F62E642F8C810E9444
:1043A00085118D818F3F19F060E00E9485110F2DDE
:1043B00010E08F8584FF24C06E0187E0C80ED11CF9
:1043C000F12CE12CB8010E2C02C0759567950A946A
:1043D000E2F76170F60181916F010E948511FFEF94
:1043E000EF1AFF0A88E0E816F10461F7CE01DF91C9
:1043F000CF911F910F91FF90EF90DF90CF9081CFE1
:10440000B80184E0759567958A95E1F7CE018FDF55
:104410006F2DCE01DF91CF911F910F91FF90EF9003
:10442000DF90CF9084CF40E0682F80E79CE0ABCF57
:10443000643008F063E09091830C691710F06FEF1F
:10444000690FE62FF0E0E059F34F9489890F8068F7
:10445000EACF81E0E8DF8BE39FE10197F1F7089570
:10446000209135023091360228173907D1F0909308
:104470003602809335024093DD065093DE0660934A
:10448000DF067093E00682579D4421F41092600489
:1044900010924104DEDF82E080933E0281E080934F
:1044A000DB060895CF93DF93EC010E94271840E0CC
:1044B00050E0BA01CE01DF91CF91D2CF21E020931D
:1044C000600460934D0470934E0480934F04909366
:1044D000500440E050E0BA018091510490915204A0
:1044E000BFCF60E070E080E291E4E8CF60E070E090
:1044F00080E89FE3E3CF6DEC7CEC8CEC9DE3DECFBA
:1045000040E050E0BA0182E79DE4AACF0F931F93E9
:10451000CF93DF93EB018A011816190644F4843116
:1045200021E0920714F083E191E00E942517D7FD66
:1045300009C0C738D10514F0C7E8D0E0D093D80639
:10454000C093D70610936C0700936B07DF91CF9150
:104550001F910F91D5CFE0914104EE2381F0E150FE
:10456000E093410486E0E89FF0011124E35EFB4FF5
:1045700042815381648175818081918171CFC0CFE7
:10458000CF93DF93613029F090917F0C98609093E6
:104590007F0C6093830C1092840C90E49093850CB4
:1045A0008093860C805C8093870C61E08091740C12
:1045B0000E94B2118091750C8F3F19F061E00E944A
:1045C000B21161E08091760C0E94B211C0E7DCE08C
:1045D0009E0120573C4080917F0C84FD0BC084E0FD
:1045E00090E021962817390744F461E08E810E94FB
:1045F000B211EECF88E090E0F4CF8BE39DE001971D
:10460000F1F760E08091740C0E94851160E0809168
:10461000760C0E9485118091750C8F3F19F060E037
:104620000E94851180917F0C84FD2CC063E080E79F
:104630009CE07DDECBE4D6E4CE010197F1F763E0A8
:1046400080E79CE074DE2197F1F763E080E79CE06F
:104650006EDE83E592E00197F1F762E080E79CE08F
:1046600066DE80917F0C8062DEDE84E08093800CC9
:104670008CE0D9DEEEDE82E08093810C86E0DF9173
:10468000CF91D1CE8062CFDE8BE496E40197F1F733
:1046900080917F0C8062C7DE83E592E00197F1F79D
:1046A00080917F0C8062BFDEDCCF41E06CDE81E078
:1046B00090E008950F931F93CF93DF93EC018C014B
:1046C0000C5E1F4FFE016491662339F080E79CE089
:1046D000ECDF2196C017D107A9F7DF91CF911F9189
:1046E0000F9108950F931F93CF93DF93CBE5DCE0F9
:1046F0000FE61CE06991662331F080E79CE0D5DF8E
:104700000C171D07B9F7DF91CF911F910F910895F5
:104710000F931F93CF93DF938B01682F80E088DE88
:10472000C8010E94841724E130E0A901481B590BFD
:10473000CA0157FD019695958795D4E1CBEEC80F38
:104740008C2F8D0F87FD06C060E280E79CE0ADDF17
:10475000D150F6CF1D16A4F4F8016491CD2FD1509D
:10476000662331F080E79CE0A0DF0F5F1F4FF2CFA0
:10477000CC2331F060E280E79CE097DFC150F8CFB6
:10478000DF91CF911F910F910895EF92FF920F93B8
:104790001F93CF93DF9300D000D01F921F92CDB70D
:1047A000DEB78E010F5F1F4FD80130E020E0FB0124
:1047B000E20FF31FE491ED932F5F3F4F2830310557
:1047C000B1F7877028E0829FC001112480642BDE3E
:1047D000780188E0E80EF11CF80161918F0180E713
:1047E0009CE063DFE016F106B9F728960FB6F8945F
:1047F000DEBF0FBECDBFDF91CF911F910F91FF9014
:10480000EF90089562E679E180E0BFDF6AE579E143
:1048100081E0BBDF62E579E182E0B7DF6AE479E15C
:1048200086E0B3DF62E479E187E0AFDF6AE379E154
:1048300083E0ABCF64E084E1A3DEE4DF0ACEFADFFD
:104840003E98469A3C98449A3A98429A0E94341765
:1048500010927104089541E0682F80E79CE093DD99
:1048600081E090E00895EF92FF920F93CF93DF9352
:10487000D82F7A01C22F80E0DBDDD11101C0C0E268
:104880008C2FE9DFC2E1F7016491662351F0CC235C
:1048900079F080E79CE009DFC150FFEFEF1AFF0AD3
:1048A000F2CFC15028F060E280E79CE0FEDEF9CF55
:1048B000802FDF91CF910F91FF90EF90CCCF0F938E
:1048C0001F93CF93DF930E94E00FD091D906C0E0F1
:1048D000D11129C01091DC061123A9F080913E026C
:1048E000882349F081E0111180E003E023E045E0F6
:1048F00059E16C2FB8DFDF5FCF5FC43049F785E047
:104900008093DA060BC080916F04882339F31092EC
:104910006F0421DE8091DB06882301F3DF91CF91C4
:104920001F910F910895D130F9F41091DC061130E8
:1049300069F080913E028823F1F281E0113009F0A4
:1049400080E00EE32EE34CEF58E1D3CF80916F046B
:10495000882379F310926F0487EF9CE2A3DD8091A6
:10496000DB06882331F3DACFD23009F04EC0109144
:10497000DC06123071F080913E02882309F4BBCF2F
:1049800081E0123009F080E00EE32EE34FEE58E1B3
:10499000B0CF80916F04882371F310926F0480E58B
:1049A00093E380DD8091DB06882329F3B7CF109154
:1049B000DC06133071F080913E02882309F49BCF0E
:1049C00081E0133009F080E00EE32EE34AEE58E177
:1049D00090CF80916F04882371F310926F048FE45D
:1049E00090E360DD8091DB06882329F397CF8091E7
:1049F0006F04882399F010926F0482EE91E352DDE8
:104A00008091DB06882351F089CFD33081F2D430F6
:104A100009F071CF1091DC06143049F380913E0209
:104A2000882309F468CF81E0143009F080E00EE3B8
:104A30002EE341EE58E15DCF0F931F93CF93DF93A9
:104A40000E94E00FD091D906C0E0D11129C0109189
:104A5000DC061123A9F080913E02882349F081E011
:104A6000111180E003E023E040E556E16C2FFBDE0E
:104A7000DF5FCF5FC43049F785E08093DA060BC073
:104A800080916F04882339F310926F0464DD809164
:104A9000DB06882301F3DF91CF911F910F910895D9
:104AA000D130F9F41091DC06113069F080913E02AA
:104AB0008823F1F281E0113009F080E00EE32EE36B
:104AC00049E456E1D3CF80916F04882379F31092A3
:104AD0006F0481E297E2E6DC8091DB06882331F304
:104AE000DACFD23009F04EC01091DC06123071F0EE
:104AF00080913E02882309F4BBCF81E0123009F097
:104B000080E00EE32EE342E456E1B0CF80916F04E3
:104B1000882371F310926F0485E297E2C3DC8091E1
:104B2000DB06882329F3B7CF1091DC06133071F030
:104B300080913E02882309F49BCF81E0133009F075
:104B400080E00EE32EE34BE356E190CF80916F04BB
:104B5000882371F310926F0489E297E2A3DC8091BD
:104B6000DB06882329F397CF80916F04882399F07F
:104B700010926F048DE297E295DC8091DB0688232A
:104B800051F089CFD33081F2D43009F071CF109138
:104B9000DC06143049F380913E02882309F468CF83
:104BA00081E0143009F080E00EE32EE342E356E1A9
:104BB0005DCF0F931F93CF93DF93182F7093520401
:104BC000609351040E94E00FD091D906C0E081E0CB
:104BD000113009F459C048F1123009F47DC0D111E7
:104BE000A2C08823D9F08091DC061816BCF0409151
:104BF000DD065091DE066091DF067091E0064F5FA2
:104C00005F4F6F4F7F4F4093DD065093DE066093FA
:104C1000DF067093E0068F5F8093DC0680913E0292
:104C2000882341F164E176E154C0D1117CC088232E
:104C3000D9F08091DC061816BCF04091DD06509149
:104C4000DE066091DF067091E0064F5F5F4F6F4FA9
:104C50007F4F4093DD065093DE066093DF0670932E
:104C6000E0068F5F8093DC0680913E026BE276E186
:104C700081112FC0DF5F80E0CF5FC43009F0A8CF83
:104C800085E08093DA0670C0D1114DC08823D9F039
:104C90008091DC061816BCF04091DD065091DE06CE
:104CA0006091DF067091E0064F5F5F4F6F4F7F4F5F
:104CB0004093DD065093DE066093DF067093E006B6
:104CC0008F5F8093DC0680913E0264E276E1882368
:104CD00089F28C2F1DDDCECFD11125C08823D9F0CC
:104CE0008091DC061816BCF04091DD065091DE067E
:104CF0006091DF067091E0064F5F5F4F6F4F7F4F0F
:104D00004093DD065093DE066093DF067093E00665
:104D10008F5F8093DC0680913E026DE176E188230F
:104D200009F4A8CFD6CFD13021F50091DC060130AF
:104D300081F080913E02882309F49CCF81E001300C
:104D400009F080E003E023E04AE056E16C2F8BDDC0
:104D500091CF80916F04882361F310926F04FBDB85
:104D60008091DB06882329F3DF91CF911F910F916A
:104D70000895D23009F04EC00091DC06023071F087
:104D800080913E02882309F475CF81E0023009F05A
:104D900080E00EE32EE340E056E1D8CF80916F042F
:104DA000882371F310926F0481E792E27BDB80919C
:104DB000DB06882329F3D8CF0091DC06033071F09D
:104DC00080913E02882309F455CF81E0033009F039
:104DD00080E00EE32EE347EF55E1B8CF80916F04FA
:104DE000882371F310926F0486E792E25BDB809177
:104DF000DB06882329F3B8CF80916F04882399F0CC
:104E000010926F048BE792E24DDB8091DB068823E2
:104E100051F0AACFD33081F2D43009F02BCF0091DA
:104E2000DC06043049F380913E02882309F422CF46
:104E300081E0043009F080E00EE32EE34CEE55E112
:104E400085CF6CE471E480E0B4CE68E471E481E085
:104E5000B0CE64E471E482E0ACCE6EEB7FE383E03D
:104E6000A8CE0F931F93CF93DF930E94E00FD091B2
:104E7000D906C0E0D11128C01091DC061123A1F0A1
:104E800080913E02882349F081E0111180E003E027
:104E900023E040E055E16C2FE6DCDF5FCF5FC430FC
:104EA00049F7C093DA060BC080916F04882341F361
:104EB00010926F0450DB8091DB06882309F3DF91A9
:104EC000CF911F910F910895D13049F51091DC06D3
:104ED000113069F080913E028823F9F281E01130AF
:104EE00009F080E000E22EE344EF54E1D4CF80915A
:104EF0006F04882379F310926F044091DC04509181
:104F0000DD046091D8047091D9048091E0049091FF
:104F1000E104FCDA8091DB068823E1F2D0CFD230C5
:104F200009F03EC01091DC06123071F080913E0213
:104F3000882309F4B2CF81E0123009F080E000E26A
:104F40002EE344ED54E1A7CF80916F04882371F3E1
:104F500010926F044091DC045091DD046FEF7FEFFD
:104F60008091E0049091E104D1DA8091DB068823FE
:104F7000E9F2A5CF80916F048823C9F010926F04E5
:104F80004091DC045091DD046091D8047091D90403
:104F900090E080E0BBDA8091DB06882341F08FCF80
:104FA000D33009F07ACF1091DC06133019F38091D9
:104FB0003E02882309F471CF81E0133009F080E0CC
:104FC00000E22EE344EE54E166CF0F931F93CF939C
:104FD000DF930E94E00FD091D906C0E0D11128C024
:104FE0001091DC061123A1F080913E02882349F044
:104FF00081E0111180E003E023E044E355E16C2FF0
:1050000032DCDF5FCF5FC43049F7C093DA060BC0F4
:1050100080916F04882341F310926F049CDA809191
:10502000DB06882309F3DF91CF911F910F9108953B
:10503000D13049F51091DC06113069F080913E02C3
:105040008823F9F281E0113009F080E000E22EE3DC
:1050500048E255E1D4CF80916F04882379F3109210
:105060006F044091DE045091DF046091DA04709186
:10507000DB048091E2049091E30448DA8091DB063E
:105080008823E1F2D0CFD23009F03EC01091DC0687
:10509000123071F080913E02882309F4B2CF81E092
:1050A000123009F080E000E22EE348E055E1A7CF9E
:1050B00080916F04882371F310926F044091DE0495
:1050C0005091DF046FEF7FEF8091E2049091E30451
:1050D0001DDA8091DB068823E9F2A5CF80916F0469
:1050E0008823C9F010926F044091DE045091DF04D0
:1050F0006091DA047091DB0490E080E007DA80913F
:10510000DB06882341F08FCFD33009F07ACF10919E
:10511000DC06133019F380913E02882309F471CF25
:1051200081E0133009F080E000E22EE348E155E130
:1051300066CF0F931F93CF93DF930E94E00FD09120
:10514000D906C0E0D11111C01091DC06112391F1F4
:1051500080913E02882349F081E0111180E003E054
:1051600023E043E854E16C2F7EDB80918B0C90911F
:105170008C0C891B8F7009F43CC0D13009F05AC0E7
:105180001091DC06113039F180913E02882351F0F4
:1051900081E0113009F080E00EE32EE34EE754E1A8
:1051A0006C2F61DBDF5FCF5FC43061F683E08093FB
:1051B000DA060CC080916F04882351F210926F04BC
:1051C000CAD98091DB06882309F4C2CFDF91CF9141
:1051D0001F910F91089580916F048823A9F2109276
:1051E0006F0482EF9AE25ED98091DB06882361F238
:1051F000EDCFD130F9F41091DC06113069F08091D7
:105200003E02882379F281E0113009F080E00EE35C
:105210002EE346E754E1C4CF80916F04882379F3ED
:1052200010926F048AED97E73DD98091DB068823C1
:1052300031F3CCCFD23009F0B5CF1091DC0612306B
:1052400071F080913E02882309F4ACCF81E01230E6
:1052500009F080E00EE32EE34EE654E1A1CF809109
:105260006F04882371F310926F0486E990E71AD9CE
:105270008091DB06882329F3A9CFCF93DF93EC013C
:10528000FE018491882319F0E6DA2196F9CFDF91A7
:10529000CF910895DF92EF92FF920F931F93CF93D8
:1052A000DF93D82FD62E8A017901C9010E94841775
:1052B000C2E1C81B6D2D80E0BBD880E2D1118EE326
:1052C000CADAF8016491662349F0CC2339F080E70B
:1052D0009CE0EBD9C1500F5F1F4FF3CF6AE380E72B
:1052E0009CE0E3D9C15010F060E2F9CFC701DF9133
:1052F000CF911F910F91FF90EF90DF90BECFCF9392
:10530000DF93EC018991882311F0A5DAFBCFDF91BF
:10531000CF910895DF92EF92FF920F931F93CF9357
:10532000DF93D82FD62E8A017901C9010E949217E6
:10533000C2E1C81B6D2D80E07BD880E2D1118EE3E5
:105340008ADAF8016491662349F0CC2339F080E7CA
:105350009CE0ABD9C1500F5F1F4FF3CF6AE380E7EA
:105360009CE0A3D9C15010F060E2F9CFC701DF91F2
:10537000CF911F910F91FF90EF90DF90C0CFCF930F
:10538000DF93CDB7DEB7EA85FB85808191810E94EE
:10539000F0169C01488559856F818E81BBDFDF91B6
:1053A000CF9108952F923F924F925F926F927F928A
:1053B0008F929F92AF92BF92CF92DF92EF92FF9225
:1053C0000F931F93CF93DF93C82F0E94E00F40905D
:1053D000D906D0E0CC0FDD1FCE0180529B4F6C016F
:1053E000CE0184529B4F7C01C852DB4F512C95E07B
:1053F000392E2FE3622E27E1722E37E4A32E37E1F8
:10540000B32E45E5842E47E1942E411037C02090FD
:10541000DC062220A9F080913E02882349F081E039
:10542000211080E003E023E049E657E1652D1BDA17
:105430004394539494E05912E8CF5092DA060BC08B
:1054400080916F04882339F310926F0484D880917F
:10545000DB06882301F3DF91CF911F910F91FF901D
:10546000EF90DF90CF90BF90AF909F908F907F9004
:105470006F905F904F903F902F90089591E0491268
:1054800036C02090DC062916E1F080913E02882388
:1054900079F21F928FEF8F931F921F92FF92EF92DC
:1054A0009F928F925F9281E0281280E08F9367DF56
:1054B0008DB79EB70A960FB6F8949EBF0FBE8DBFEC
:1054C000B7CF80916F04882301F310926F0410E02E
:1054D00000E02FEF30E050E040E0B7018FE597E1CA
:1054E0000E9447188091DB06882379F2B4CF92E0BE
:1054F00049124EC02090DC062916F1F080913E0240
:10550000882309F495CF81E08F9394E09F931F92B5
:105510003F92DF92CF92BF92AF925F9292E02912B8
:1055200080E08F932CDF8DB79EB70A960FB6F89464
:105530009EBF0FBE8DBF7CCF80916F048823F1F298
:1055400010926F0410E000E024E031E045E050E00C
:10555000B6018EE497E10E9447188091DB0688230C
:1055600069F279CF80916F048823D1F010926F0493
:1055700010E000E027E830E045E050E0BE0183E4C1
:1055800097E10E9447188091DB06882349F063CF9A
:1055900083E048124DCF2090DC0693E0291611F3EA
:1055A00080913E02882309F443CF1F9287E88F93AE
:1055B0001F923F92DF93CF937F926F925F9281E031
:1055C00093E0291280E08F93DADE8DB79EB70A96BA
:1055D0000FB6F8949EBF0FBE8DBF2ACF81E0E2CEFA
:1055E00080E0E0CE2F923F924F925F926F927F9237
:1055F0008F929F92AF92BF92CF92DF92EF92FF92E3
:105600000F931F93CF93DF930E94E00FC091D906B1
:10561000D0E087EE482E9AE0392E2FE8622E24E162
:10562000722E5524539439E9E32E34E1F32E4DEADA
:10563000C42E44E1D42E55EBA52E54E1B52E63ECD7
:10564000862E64E1962EC11138C02090DC062220FF
:10565000A9F080913E02882349F081E0211080E08A
:1056600003E023E04FEC54E16D2FFDD8CF5FDF5F07
:10567000D43049F786E08093DA060CC080916F043D
:10568000882339F310926F040E94AB228091DB06CD
:105690008823F9F2DF91CF911F910F91FF90EF9046
:1056A000DF90CF90BF90AF909F908F907F906F9042
:1056B0005F904F903F902F900895C130D1F520908A
:1056C000DC0681E02816F1F080913E02882371F219
:1056D00093E09F934F921F923F928CE392E09F93AF
:1056E0008F939F928F92DF9381E0281280E08F93B7
:1056F00046DE8DB79EB70A960FB6F8949EBF0FBED2
:105700008DBFB4CF80916F048823F1F210926F04A3
:1057100010E000E027EE33E04AE050E06CE372E096
:1057200089EC94E10E9447188091DB06882361F29E
:10573000B1CFC23009F0F4C02090DC0692E0291607
:1057400021F180913E02882309F490CF86E298E10E
:105750009F938F935F9284E08F931F921F9288E7AD
:1057600094E09F938F93BF92AF92DF9381E092E09A
:10577000291280E08F9303DE8DB79EB70C960FB68B
:10578000F8949EBF0FBE8DBF71CF80916F048823A8
:10579000C1F210926F045092E106109267041092C9
:1057A00068041092690410926A0406E218E124E089
:1057B00031E050E040E068E774E08CEB94E10E9457
:1057C00047188091DB06882309F4BBCF63CF209074
:1057D000DC0693E0291621F180913E02882309F42A
:1057E00045CF88EC90E19F938F931F9287E88F932A
:1057F0001F921F9287ED96E09F938F93DF92CF9237
:10580000DF9381E093E0291280E08F93B8DD8DB7BC
:105810009EB70C960FB6F8949EBF0FBE8DBF26CFD5
:1058200080916F048823C1F210926F045092E106B8
:1058300010926704109268041092690410926A042E
:1058400008EC10E127E830E050E040E067ED76E05A
:1058500081EB94E10E9447188091DB06882309F4CC
:10586000BBCF18CF2090DC0694E0291601F180917F
:105870003E02882309F4FACE1F928FEF8F931F9276
:105880001F928BE697E09F938F93FF92EF92DF93A7
:1058900081E094E0291280E08F9371DD8DB79EB78F
:1058A0000A960FB6F8949EBF0FBE8DBFDFCE8091D3
:1058B0006F048823E1F210926F045092E106109277
:1058C0006704109268041092690410926A0410E050
:1058D00000E02FEF30E050E040E06BE677E083EA55
:1058E00094E10E9447188091DB06882309F4BFCF1A
:1058F000D1CE80916F04882309F110926F0403E0E8
:1059000018E127EE33E04AE050E061E372E084E919
:1059100094E10E9447188091DB06882379F0BACE83
:10592000C33009F454CFC43009F49CCFC53009F01A
:105930009DCE2090DC0695E02916D9F280913E029A
:10594000882309F493CE83E098E19F938F9383E0BB
:105950008F934F921F923F9281E392E09F938F9398
:105960007F926F92DF9381E095E0291280E08F9320
:1059700006DD8DB79EB70C960FB6F8949EBF0FBE8E
:105980008DBF74CECF92DF92EF92FF92CF93DF93D1
:10599000CDB7DEB7EE85FF85C080D180E280F38091
:1059A00020E030E0A901C701B6010E9484A120E0F7
:1059B00030E040E05FE387FF04C020E030E040E0FB
:1059C0005FEBC701B6010E94A6A50E94EAA6CB0123
:1059D0000E94F0169C014C855D856B858A859ADC5A
:1059E000DF91CF91FF90EF90DF90CF9008952F92AD
:1059F0003F924F925F926F927F928F929F92AF925F
:105A0000BF92CF92DF92EF92FF920F931F93CF93AB
:105A1000DF930E94E00FC091D906D0E05524539443
:105A200063E0462E77EE372EE3E9CE2EE7E1DE2E59
:105A3000F1EAAF2EF7E1BF2EAFEA8A2EA7E19A2E48
:105A4000BDEB6B2EB7E17B2EC11139C02090DC0677
:105A50002220B1F080913E02882351F081E0211094
:105A600080E003E023E04BEC57E16D2F0E943324EC
:105A7000CF5FDF5FD43041F787E08093DA060CC058
:105A800080916F04882331F310926F040E94AB223F
:105A90008091DB068823F1F2DF91CF911F910F9166
:105AA000FF90EF90DF90CF90BF90AF909F908F903E
:105AB0007F906F905F904F903F902F900895C130EE
:105AC00009F047C02090DC0621E02216E9F0809121
:105AD0003E02882369F24F923F921F925F928AE3BF
